{"project/contracts/EduAccessControl.sol":{"EduAccessControl":{"abi":[{"inputs":[{"internalType":"address","name":"initialAdmin","type":"address"}],"stateMutability":"nonpayable","type":"constructor"},{"inputs":[{"internalType":"uint256","name":"contentId","type":"uint256"},{"internalType":"address","name":"student","type":"address"}],"name":"AccessAlreadyGranted","type":"error"},{"inputs":[],"name":"AccessControlBadConfirmation","type":"error"},{"inputs":[{"internalType":"address","name":"account","type":"address"},{"internalType":"bytes32","name":"neededRole","type":"bytes32"}],"name":"AccessControlUnauthorizedAccount","type":"error"},{"inputs":[{"internalType":"uint256","name":"contentId","type":"uint256"},{"internalType":"uint256","name":"releaseTime","type":"uint256"},{"internalType":"uint256","name":"currentTime","type":"uint256"}],"name":"ContentLocked","type":"error"},{"inputs":[{"internalType":"uint256","name":"contentId","type":"uint256"}],"name":"ContentNotFound","type":"error"},{"inputs":[{"internalType":"uint256","name":"contentId","type":"uint256"}],"name":"ContentNotReleased","type":"error"},{"inputs":[{"internalType":"address","name":"sender","type":"address"},{"internalType":"uint256","name":"tokenId","type":"uint256"},{"internalType":"address","name":"owner","type":"address"}],"name":"ERC721IncorrectOwner","type":"error"},{"inputs":[{"internalType":"address","name":"operator","type":"address"},{"internalType":"uint256","name":"tokenId","type":"uint256"}],"name":"ERC721InsufficientApproval","type":"error"},{"inputs":[{"internalType":"address","name":"approver","type":"address"}],"name":"ERC721InvalidApprover","type":"error"},{"inputs":[{"internalType":"address","name":"operator","type":"address"}],"name":"ERC721InvalidOperator","type":"error"},{"inputs":[{"internalType":"address","name":"owner","type":"address"}],"name":"ERC721InvalidOwner","type":"error"},{"inputs":[{"internalType":"address","name":"receiver","type":"address"}],"name":"ERC721InvalidReceiver","type":"error"},{"inputs":[{"internalType":"address","name":"sender","type":"address"}],"name":"ERC721InvalidSender","type":"error"},{"inputs":[{"internalType":"uint256","name":"tokenId","type":"uint256"}],"name":"ERC721NonexistentToken","type":"error"},{"inputs":[{"internalType":"address","name":"account","type":"address"}],"name":"ExamCenterRoleRequired","type":"error"},{"inputs":[],"name":"InvalidAddress","type":"error"},{"inputs":[],"name":"InvalidIpfsHash","type":"error"},{"inputs":[],"name":"InvalidReleaseTime","type":"error"},{"inputs":[{"internalType":"uint256","name":"contentId","type":"uint256"},{"internalType":"address","name":"student","type":"address"}],"name":"NoAccessNFT","type":"error"},{"inputs":[],"name":"ReentrancyGuardReentrantCall","type":"error"},{"anonymous":false,"inputs":[{"indexed":true,"internalType":"uint256","name":"contentId","type":"uint256"},{"indexed":true,"internalType":"address","name":"student","type":"address"},{"indexed":true,"internalType":"uint256","name":"tokenId","type":"uint256"}],"name":"AccessGranted","type":"event"},{"anonymous":false,"inputs":[{"indexed":true,"internalType":"address","name":"owner","type":"address"},{"indexed":true,"internalType":"address","name":"approved","type":"address"},{"indexed":true,"internalType":"uint256","name":"tokenId","type":"uint256"}],"name":"Approval","type":"event"},{"anonymous":false,"inputs":[{"indexed":true,"internalType":"address","name":"owner","type":"address"},{"indexed":true,"internalType":"address","name":"operator","type":"address"},{"indexed":false,"internalType":"bool","name":"approved","type":"bool"}],"name":"ApprovalForAll","type":"event"},{"anonymous":false,"inputs":[{"indexed":true,"internalType":"uint256","name":"contentId","type":"uint256"},{"indexed":true,"internalType":"address","name":"approvedBy","type":"address"},{"indexed":false,"internalType":"uint256","name":"approvals","type":"uint256"}],"name":"ContentApproved","type":"event"},{"anonymous":false,"inputs":[{"indexed":true,"internalType":"uint256","name":"contentId","type":"uint256"},{"indexed":false,"internalType":"uint256","name":"releaseTime","type":"uint256"}],"name":"ContentReleased","type":"event"},{"anonymous":false,"inputs":[{"indexed":true,"internalType":"uint256","name":"contentId","type":"uint256"},{"indexed":true,"internalType":"address","name":"uploadedBy","type":"address"},{"indexed":false,"internalType":"string","name":"ipfsHash","type":"string"},{"indexed":false,"internalType":"uint256","name":"releaseTime","type":"uint256"}],"name":"ContentUploaded","type":"event"},{"anonymous":false,"inputs":[{"indexed":true,"internalType":"bytes32","name":"role","type":"bytes32"},{"indexed":true,"internalType":"bytes32","name":"previousAdminRole","type":"bytes32"},{"indexed":true,"internalType":"bytes32","name":"newAdminRole","type":"bytes32"}],"name":"RoleAdminChanged","type":"event"},{"anonymous":false,"inputs":[{"indexed":true,"internalType":"bytes32","name":"role","type":"bytes32"},{"indexed":true,"internalType":"address","name":"account","type":"address"},{"indexed":true,"internalType":"address","name":"sender","type":"address"}],"name":"RoleGranted","type":"event"},{"anonymous":false,"inputs":[{"indexed":true,"internalType":"bytes32","name":"role","type":"bytes32"},{"indexed":true,"internalType":"address","name":"account","type":"address"},{"indexed":true,"internalType":"address","name":"sender","type":"address"}],"name":"RoleRevoked","type":"event"},{"anonymous":false,"inputs":[{"indexed":true,"internalType":"address","name":"from","type":"address"},{"indexed":true,"internalType":"address","name":"to","type":"address"},{"indexed":true,"internalType":"uint256","name":"tokenId","type":"uint256"}],"name":"Transfer","type":"event"},{"inputs":[],"name":"ADMIN_ROLE","outputs":[{"internalType":"bytes32","name":"","type":"bytes32"}],"stateMutability":"view","type":"function"},{"inputs":[],"name":"DEFAULT_ADMIN_ROLE","outputs":[{"internalType":"bytes32","name":"","type":"bytes32"}],"stateMutability":"view","type":"function"},{"inputs":[],"name":"EXAM_CENTER_ROLE","outputs":[{"internalType":"bytes32","name":"","type":"bytes32"}],"stateMutability":"view","type":"function"},{"inputs":[],"name":"STUDENT_ROLE","outputs":[{"internalType":"bytes32","name":"","type":"bytes32"}],"stateMutability":"view","type":"function"},{"inputs":[],"name":"TEACHER_ROLE","outputs":[{"internalType":"bytes32","name":"","type":"bytes32"}],"stateMutability":"view","type":"function"},{"inputs":[{"internalType":"address","name":"to","type":"address"},{"internalType":"uint256","name":"tokenId","type":"uint256"}],"name":"approve","outputs":[],"stateMutability":"nonpayable","type":"function"},{"inputs":[{"internalType":"uint256","name":"contentId","type":"uint256"}],"name":"approveContent","outputs":[],"stateMutability":"nonpayable","type":"function"},{"inputs":[{"internalType":"address","name":"owner","type":"address"}],"name":"balanceOf","outputs":[{"internalType":"uint256","name":"","type":"uint256"}],"stateMutability":"view","type":"function"},{"inputs":[{"internalType":"uint256","name":"","type":"uint256"}],"name":"contentExists","outputs":[{"internalType":"bool","name":"","type":"bool"}],"stateMutability":"view","type":"function"},{"inputs":[{"internalType":"uint256","name":"contentId","type":"uint256"}],"name":"finalizeContent","outputs":[],"stateMutability":"nonpayable","type":"function"},{"inputs":[],"name":"getAllContentIds","outputs":[{"internalType":"uint256[]","name":"","type":"uint256[]"}],"stateMutability":"view","type":"function"},{"inputs":[{"internalType":"uint256","name":"tokenId","type":"uint256"}],"name":"getApproved","outputs":[{"internalType":"address","name":"","type":"address"}],"stateMutability":"view","type":"function"},{"inputs":[{"internalType":"uint256","name":"contentId","type":"uint256"}],"name":"getContent","outputs":[{"internalType":"string","name":"ipfsHash","type":"string"},{"internalType":"uint256","name":"releaseTime","type":"uint256"}],"stateMutability":"view","type":"function"},{"inputs":[{"internalType":"uint256","name":"contentId","type":"uint256"}],"name":"getPendingContent","outputs":[{"components":[{"internalType":"string","name":"ipfsHash","type":"string"},{"internalType":"uint256","name":"approvals","type":"uint256"},{"internalType":"uint256","name":"releaseTime","type":"uint256"},{"internalType":"bool","name":"released","type":"bool"}],"internalType":"struct EduAccessControl.PendingContent","name":"","type":"tuple"}],"stateMutability":"view","type":"function"},{"inputs":[{"internalType":"bytes32","name":"role","type":"bytes32"}],"name":"getRoleAdmin","outputs":[{"internalType":"bytes32","name":"","type":"bytes32"}],"stateMutability":"view","type":"function"},{"inputs":[{"internalType":"bytes32","name":"role","type":"bytes32"},{"internalType":"address","name":"account","type":"address"}],"name":"grantRole","outputs":[],"stateMutability":"nonpayable","type":"function"},{"inputs":[{"internalType":"uint256","name":"","type":"uint256"},{"internalType":"address","name":"","type":"address"}],"name":"hasContentAccess","outputs":[{"internalType":"bool","name":"","type":"bool"}],"stateMutability":"view","type":"function"},{"inputs":[{"internalType":"bytes32","name":"role","type":"bytes32"},{"internalType":"address","name":"account","type":"address"}],"name":"hasRole","outputs":[{"internalType":"bool","name":"","type":"bool"}],"stateMutability":"view","type":"function"},{"inputs":[{"internalType":"address","name":"owner","type":"address"},{"internalType":"address","name":"operator","type":"address"}],"name":"isApprovedForAll","outputs":[{"internalType":"bool","name":"","type":"bool"}],"stateMutability":"view","type":"function"},{"inputs":[{"internalType":"address","name":"student","type":"address"},{"internalType":"uint256","name":"contentId","type":"uint256"}],"name":"mintAccessNFT","outputs":[],"stateMutability":"nonpayable","type":"function"},{"inputs":[],"name":"name","outputs":[{"internalType":"string","name":"","type":"string"}],"stateMutability":"view","type":"function"},{"inputs":[],"name":"nextTokenId","outputs":[{"internalType":"uint256","name":"","type":"uint256"}],"stateMutability":"view","type":"function"},{"inputs":[{"internalType":"uint256","name":"tokenId","type":"uint256"}],"name":"ownerOf","outputs":[{"internalType":"address","name":"","type":"address"}],"stateMutability":"view","type":"function"},{"inputs":[{"internalType":"bytes32","name":"role","type":"bytes32"},{"internalType":"address","name":"callerConfirmation","type":"address"}],"name":"renounceRole","outputs":[],"stateMutability":"nonpayable","type":"function"},{"inputs":[{"internalType":"bytes32","name":"role","type":"bytes32"},{"internalType":"address","name":"account","type":"address"}],"name":"revokeRole","outputs":[],"stateMutability":"nonpayable","type":"function"},{"inputs":[{"internalType":"address","name":"from","type":"address"},{"internalType":"address","name":"to","type":"address"},{"internalType":"uint256","name":"tokenId","type":"uint256"}],"name":"safeTransferFrom","outputs":[],"stateMutability":"nonpayable","type":"function"},{"inputs":[{"internalType":"address","name":"from","type":"address"},{"internalType":"address","name":"to","type":"address"},{"internalType":"uint256","name":"tokenId","type":"uint256"},{"internalType":"bytes","name":"data","type":"bytes"}],"name":"safeTransferFrom","outputs":[],"stateMutability":"nonpayable","type":"function"},{"inputs":[{"internalType":"address","name":"operator","type":"address"},{"internalType":"bool","name":"approved","type":"bool"}],"name":"setApprovalForAll","outputs":[],"stateMutability":"nonpayable","type":"function"},{"inputs":[{"internalType":"bytes4","name":"interfaceId","type":"bytes4"}],"name":"supportsInterface","outputs":[{"internalType":"bool","name":"","type":"bool"}],"stateMutability":"view","type":"function"},{"inputs":[],"name":"symbol","outputs":[{"internalType":"string","name":"","type":"string"}],"stateMutability":"view","type":"function"},{"inputs":[{"internalType":"uint256","name":"","type":"uint256"}],"name":"tokenToContentId","outputs":[{"internalType":"uint256","name":"","type":"uint256"}],"stateMutability":"view","type":"function"},{"inputs":[{"internalType":"uint256","name":"tokenId","type":"uint256"}],"name":"tokenURI","outputs":[{"internalType":"string","name":"","type":"string"}],"stateMutability":"view","type":"function"},{"inputs":[{"internalType":"address","name":"from","type":"address"},{"internalType":"address","name":"to","type":"address"},{"internalType":"uint256","name":"tokenId","type":"uint256"}],"name":"transferFrom","outputs":[],"stateMutability":"nonpayable","type":"function"},{"inputs":[{"internalType":"string","name":"ipfsHash","type":"string"},{"internalType":"uint256","name":"releaseTime","type":"uint256"}],"name":"uploadContent","outputs":[{"internalType":"uint256","name":"contentId","type":"uint256"}],"stateMutability":"nonpayable","type":"function"}],"evm":{"bytecode":{"linkReferences":{},"object":"608060405234801561000f575f5ffd5b506040516141fd3803806141fd8339818101604052810190610031919061047d565b6040518060400160405280600d81526020017f45647541636365737350617373000000000000000000000000000000000000008152506040518060400160405280600781526020017f454455504153530000000000000000000000000000000000000000000000000081525081600190816100ac91906106e5565b5080600290816100bc91906106e5565b50505060016100dd6100d261021460201b60201c565b61023d60201b60201c565b5f01819055505f73ffffffffffffffffffffffffffffffffffffffff168173ffffffffffffffffffffffffffffffffffffffff1603610148576040517fe6c4247b00000000000000000000000000000000000000000000000000000000815260040160405180910390fd5b61015a5f5f1b8261024660201b60201c565b5061018b7fa49807205ce4d355092ef5a8a18f56e8913cf4a201fbe287825b095693c217758261024660201b60201c565b506101be7fa49807205ce4d355092ef5a8a18f56e8913cf4a201fbe287825b095693c217755f5f1b61033b60201b60201c565b61020e7f50bb68bef9670e62a9c3fd58243f7647e87acb27108ef5a03225f3cd31d27b477fa49807205ce4d355092ef5a8a18f56e8913cf4a201fbe287825b095693c2177561033b60201b60201c565b506107b4565b5f7f9b779b17422d0df92223018b32b4d1fa46e071723d6817e2486d003becc55f005f1b905090565b5f819050919050565b5f610257838361039960201b60201c565b6103315760015f5f8581526020019081526020015f205f015f8473ffffffffffffffffffffffffffffffffffffffff1673ffffffffffffffffffffffffffffffffffffffff1681526020019081526020015f205f6101000a81548160ff0219169083151502179055506102ce6103fc60201b60201c565b73ffffffffffffffffffffffffffffffffffffffff168273ffffffffffffffffffffffffffffffffffffffff16847f2f8788117e7eff1d82e926ec794901d17c78024a50270940304540a733656f0d60405160405180910390a460019050610335565b5f90505b92915050565b5f61034b8361040360201b60201c565b9050815f5f8581526020019081526020015f20600101819055508181847fbd79b86ffe0ab8e8776151514217cd7cacd52c909f66475c3af44e129f0b00ff60405160405180910390a4505050565b5f5f5f8481526020019081526020015f205f015f8373ffffffffffffffffffffffffffffffffffffffff1673ffffffffffffffffffffffffffffffffffffffff1681526020019081526020015f205f9054906101000a900460ff16905092915050565b5f33905090565b5f5f5f8381526020019081526020015f20600101549050919050565b5f5ffd5b5f73ffffffffffffffffffffffffffffffffffffffff82169050919050565b5f61044c82610423565b9050919050565b61045c81610442565b8114610466575f5ffd5b50565b5f8151905061047781610453565b92915050565b5f602082840312156104925761049161041f565b5b5f61049f84828501610469565b91505092915050565b5f81519050919050565b7f4e487b71000000000000000000000000000000000000000000000000000000005f52604160045260245ffd5b7f4e487b71000000000000000000000000000000000000000000000000000000005f52602260045260245ffd5b5f600282049050600182168061052357607f821691505b602082108103610536576105356104df565b5b50919050565b5f819050815f5260205f209050919050565b5f6020601f8301049050919050565b5f82821b905092915050565b5f600883026105987fffffffffffffffffffffffffffffffffffffffffffffffffffffffffffffffff8261055d565b6105a2868361055d565b95508019841693508086168417925050509392505050565b5f819050919050565b5f819050919050565b5f6105e66105e16105dc846105ba565b6105c3565b6105ba565b9050919050565b5f819050919050565b6105ff836105cc565b61061361060b826105ed565b848454610569565b825550505050565b5f5f905090565b61062a61061b565b6106358184846105f6565b505050565b5b818110156106585761064d5f82610622565b60018101905061063b565b5050565b601f82111561069d5761066e8161053c565b6106778461054e565b81016020851015610686578190505b61069a6106928561054e565b83018261063a565b50505b505050565b5f82821c905092915050565b5f6106bd5f19846008026106a2565b1980831691505092915050565b5f6106d583836106ae565b9150826002028217905092915050565b6106ee826104a8565b67ffffffffffffffff811115610707576107066104b2565b5b610711825461050c565b61071c82828561065c565b5f60209050601f83116001811461074d575f841561073b578287015190505b61074585826106ca565b8655506107ac565b601f19841661075b8661053c565b5f5b828110156107825784890151825560018201915060208501945060208101905061075d565b8683101561079f578489015161079b601f8916826106ae565b8355505b6001600288020188555050505b505050505050565b613a3c806107c15f395ff3fe608060405234801561000f575f5ffd5b5060043610610204575f3560e01c806375794a3c11610118578063b3402c1a116100ab578063d547741f1161007a578063d547741f14610621578063dde288e51461063d578063e985e9c51461066d578063ecdc68fb1461069d578063f7be43fb146106cd57610204565b8063b3402c1a14610587578063b88d4fde146105b7578063c130efd0146105d3578063c87b56dd146105f157610204565b806391d14854116100e757806391d14854146104ff57806395d89b411461052f578063a217fddf1461054d578063a22cb4651461056b57610204565b806375794a3c1461048957806375b238fc146104a757806386e5c15a146104c5578063878b9b44146104e357610204565b806335a5a37f1161019b578063589c96481161016a578063589c9648146103ad5780636352211e146103c957806365e404ed146103f957806370a0823114610429578063724121ae1461045957610204565b806335a5a37f1461033b57806336568abe1461035757806342842e0e1461037357806344fcce231461038f57610204565b80630b7ad54c116101d75780630b7ad54c146102a257806323b872dd146102d3578063248a9ca3146102ef5780632f2ff15d1461031f57610204565b806301ffc9a71461020857806306fdde0314610238578063081812fc14610256578063095ea7b314610286575b5f5ffd5b610222600480360381019061021d9190612b0b565b6106eb565b60405161022f9190612b50565b60405180910390f35b6102406106fc565b60405161024d9190612bd9565b60405180910390f35b610270600480360381019061026b9190612c2c565b61078c565b60405161027d9190612c96565b60405180910390f35b6102a0600480360381019061029b9190612cd9565b6107a7565b005b6102bc60048036038101906102b79190612c2c565b6107bd565b6040516102ca929190612d26565b60405180910390f35b6102ed60048036038101906102e89190612d54565b6109d2565b005b61030960048036038101906103049190612dd7565b610ad1565b6040516103169190612e11565b60405180910390f35b61033960048036038101906103349190612e2a565b610aed565b005b61035560048036038101906103509190612cd9565b610b0f565b005b610371600480360381019061036c9190612e2a565b610df4565b005b61038d60048036038101906103889190612d54565b610e6f565b005b610397610e8e565b6040516103a49190612e11565b60405180910390f35b6103c760048036038101906103c29190612c2c565b610eb2565b005b6103e360048036038101906103de9190612c2c565b610f52565b6040516103f09190612c96565b60405180910390f35b610413600480360381019061040e9190612ec9565b610f63565b6040516104209190612f26565b60405180910390f35b610443600480360381019061043e9190612f3f565b611263565b6040516104509190612f26565b60405180910390f35b610473600480360381019061046e9190612c2c565b611319565b6040516104809190612b50565b60405180910390f35b610491611336565b60405161049e9190612f26565b60405180910390f35b6104af61133c565b6040516104bc9190612e11565b60405180910390f35b6104cd611360565b6040516104da9190612e11565b60405180910390f35b6104fd60048036038101906104f89190612c2c565b611384565b005b61051960048036038101906105149190612e2a565b611417565b6040516105269190612b50565b60405180910390f35b61053761147a565b6040516105449190612bd9565b60405180910390f35b61055561150a565b6040516105629190612e11565b60405180910390f35b61058560048036038101906105809190612f94565b611510565b005b6105a1600480360381019061059c9190612fd2565b611526565b6040516105ae9190612b50565b60405180910390f35b6105d160048036038101906105cc9190613138565b611550565b005b6105db611575565b6040516105e8919061326f565b60405180910390f35b61060b60048036038101906106069190612c2c565b6115cb565b6040516106189190612bd9565b60405180910390f35b61063b60048036038101906106369190612e2a565b611631565b005b61065760048036038101906106529190612c2c565b611653565b6040516106649190612f26565b60405180910390f35b6106876004803603810190610682919061328f565b611668565b6040516106949190612b50565b60405180910390f35b6106b760048036038101906106b29190612c2c565b6116f6565b6040516106c49190613384565b60405180910390f35b6106d56117d6565b6040516106e29190612e11565b60405180910390f35b5f6106f5826117fa565b9050919050565b60606001805461070b906133d1565b80601f0160208091040260200160405190810160405280929190818152602001828054610737906133d1565b80156107825780601f1061075957610100808354040283529160200191610782565b820191905f5260205f20905b81548152906001019060200180831161076557829003601f168201915b5050505050905090565b5f610796826118db565b506107a082611961565b9050919050565b6107b982826107b461199a565b6119a1565b5050565b60605f7f50bb68bef9670e62a9c3fd58243f7647e87acb27108ef5a03225f3cd31d27b476107ea816119b3565b5f6107f4856119c7565b9050806003015f9054906101000a900460ff1661084857846040517f12a4ce3d00000000000000000000000000000000000000000000000000000000815260040161083f9190612f26565b60405180910390fd5b806002015442101561089957848160020154426040517fc7d4b3fd00000000000000000000000000000000000000000000000000000000815260040161089093929190613401565b60405180910390fd5b600d5f8681526020019081526020015f205f3373ffffffffffffffffffffffffffffffffffffffff1673ffffffffffffffffffffffffffffffffffffffff1681526020019081526020015f205f9054906101000a900460ff166109355784336040517f4591c63500000000000000000000000000000000000000000000000000000000815260040161092c929190613436565b60405180910390fd5b805f018160020154818054610949906133d1565b80601f0160208091040260200160405190810160405280929190818152602001828054610975906133d1565b80156109c05780601f10610997576101008083540402835291602001916109c0565b820191905f5260205f20905b8154815290600101906020018083116109a357829003601f168201915b50505050509150935093505050915091565b5f73ffffffffffffffffffffffffffffffffffffffff168273ffffffffffffffffffffffffffffffffffffffff1603610a42575f6040517f64a0ae92000000000000000000000000000000000000000000000000000000008152600401610a399190612c96565b60405180910390fd5b5f610a558383610a5061199a565b611a3f565b90508373ffffffffffffffffffffffffffffffffffffffff168173ffffffffffffffffffffffffffffffffffffffff1614610acb578382826040517f64283d7b000000000000000000000000000000000000000000000000000000008152600401610ac29392919061345d565b60405180910390fd5b50505050565b5f5f5f8381526020019081526020015f20600101549050919050565b610af682610ad1565b610aff816119b3565b610b098383611c4a565b50505050565b7fa49807205ce4d355092ef5a8a18f56e8913cf4a201fbe287825b095693c21775610b39816119b3565b610b41611d33565b5f73ffffffffffffffffffffffffffffffffffffffff168373ffffffffffffffffffffffffffffffffffffffff1603610ba6576040517fe6c4247b00000000000000000000000000000000000000000000000000000000815260040160405180910390fd5b610bd07f50bb68bef9670e62a9c3fd58243f7647e87acb27108ef5a03225f3cd31d27b4784611417565b610c1157826040517fa105a2a5000000000000000000000000000000000000000000000000000000008152600401610c089190612c96565b60405180910390fd5b5f610c1b836119c7565b9050806003015f9054906101000a900460ff16610c6f57826040517f12a4ce3d000000000000000000000000000000000000000000000000000000008152600401610c669190612f26565b60405180910390fd5b600d5f8481526020019081526020015f205f8573ffffffffffffffffffffffffffffffffffffffff1673ffffffffffffffffffffffffffffffffffffffff1681526020019081526020015f205f9054906101000a900460ff1615610d0c5782846040517f0f95035b000000000000000000000000000000000000000000000000000000008152600401610d03929190613436565b60405180910390fd5b5f6007549050600181016007819055506001600d5f8681526020019081526020015f205f8773ffffffffffffffffffffffffffffffffffffffff1673ffffffffffffffffffffffffffffffffffffffff1681526020019081526020015f205f6101000a81548160ff02191690831515021790555083600c5f8381526020019081526020015f2081905550610da08582611d55565b808573ffffffffffffffffffffffffffffffffffffffff16857fc56e8aa8e9f4284830fd4657bc77d60640af2ec679f2099faf320ee4202ff42260405160405180910390a45050610def611d72565b505050565b610dfc61199a565b73ffffffffffffffffffffffffffffffffffffffff168173ffffffffffffffffffffffffffffffffffffffff1614610e60576040517f6697b23200000000000000000000000000000000000000000000000000000000815260040160405180910390fd5b610e6a8282611d8c565b505050565b610e8983838360405180602001604052805f815250611550565b505050565b7f50bb68bef9670e62a9c3fd58243f7647e87acb27108ef5a03225f3cd31d27b4781565b7fa49807205ce4d355092ef5a8a18f56e8913cf4a201fbe287825b095693c21775610edc816119b3565b5f610ee6836119c7565b90506001816001015f82825401925050819055503373ffffffffffffffffffffffffffffffffffffffff16837f4699bfe4cfda2b9ce45ba5253e612c6d2c7afa12d0d9f575a561461fe0d277d98360010154604051610f459190612f26565b60405180910390a3505050565b5f610f5c826118db565b9050919050565b5f7fa49807205ce4d355092ef5a8a18f56e8913cf4a201fbe287825b095693c21775610f8e816119b3565b5f8585905003610fca576040517fd808503f00000000000000000000000000000000000000000000000000000000815260040160405180910390fd5b428311611003576040517f4510603600000000000000000000000000000000000000000000000000000000815260040160405180910390fd5b4442338787876008546040516020016110229796959493929190613525565b604051602081830303815290604052805190602001205f1c91505b600a5f8381526020019081526020015f205f9054906101000a900460ff16156110ae57600160085f828254019250508190555044423387878760085460405160200161108f9796959493929190613525565b604051602081830303815290604052805190602001205f1c915061103d565b600160085f8282540192505081905550604051806080016040528086868080601f0160208091040260200160405190810160405280939291908181526020018383808284375f81840152601f19601f820116905080830192505050505050508152602001600181526020018481526020016001151581525060095f8481526020019081526020015f205f820151815f01908161114a9190613732565b5060208201518160010155604082015181600201556060820151816003015f6101000a81548160ff0219169083151502179055509050506001600a5f8481526020019081526020015f205f6101000a81548160ff021916908315150217905550600b82908060018154018082558091505060019003905f5260205f20015f90919091909150553373ffffffffffffffffffffffffffffffffffffffff16827fafa2af017b015352d76042ebc01032fcfd6067f8c24e7d01588bde8229680b7087878760405161121b9392919061382d565b60405180910390a3817fab59f8c308501871d48cdabd47088b7dfd085e8f3c41c405e1d5c64613f8d493846040516112539190612f26565b60405180910390a2509392505050565b5f5f73ffffffffffffffffffffffffffffffffffffffff168273ffffffffffffffffffffffffffffffffffffffff16036112d4575f6040517f89c62b640000000000000000000000000000000000000000000000000000000081526004016112cb9190612c96565b60405180910390fd5b60045f8373ffffffffffffffffffffffffffffffffffffffff1673ffffffffffffffffffffffffffffffffffffffff1681526020019081526020015f20549050919050565b600a602052805f5260405f205f915054906101000a900460ff1681565b60075481565b7fa49807205ce4d355092ef5a8a18f56e8913cf4a201fbe287825b095693c2177581565b7fa49807205ce4d355092ef5a8a18f56e8913cf4a201fbe287825b095693c2177581565b7fa49807205ce4d355092ef5a8a18f56e8913cf4a201fbe287825b095693c217756113ae816119b3565b5f6113b8836119c7565b90506001816003015f6101000a81548160ff021916908315150217905550827fab59f8c308501871d48cdabd47088b7dfd085e8f3c41c405e1d5c64613f8d493826002015460405161140a9190612f26565b60405180910390a2505050565b5f5f5f8481526020019081526020015f205f015f8373ffffffffffffffffffffffffffffffffffffffff1673ffffffffffffffffffffffffffffffffffffffff1681526020019081526020015f205f9054906101000a900460ff16905092915050565b606060028054611489906133d1565b80601f01602080910402602001604051908101604052809291908181526020018280546114b5906133d1565b80156115005780601f106114d757610100808354040283529160200191611500565b820191905f5260205f20905b8154815290600101906020018083116114e357829003601f168201915b5050505050905090565b5f5f1b81565b61152261151b61199a565b8383611e75565b5050565b600d602052815f5260405f20602052805f5260405f205f915091509054906101000a900460ff1681565b61155b8484846109d2565b61156f61156661199a565b8585858561204e565b50505050565b6060600b8054806020026020016040519081016040528092919081815260200182805480156115c157602002820191905f5260205f20905b8154815260200190600101908083116115ad575b5050505050905090565b60606115d6826118db565b505f6115e06121fa565b90505f8151116115fe5760405180602001604052805f815250611629565b8061160884612210565b60405160200161161992919061388d565b6040516020818303038152906040525b915050919050565b61163a82610ad1565b611643816119b3565b61164d8383611d8c565b50505050565b600c602052805f5260405f205f915090505481565b5f60065f8473ffffffffffffffffffffffffffffffffffffffff1673ffffffffffffffffffffffffffffffffffffffff1681526020019081526020015f205f8373ffffffffffffffffffffffffffffffffffffffff1673ffffffffffffffffffffffffffffffffffffffff1681526020019081526020015f205f9054906101000a900460ff16905092915050565b6116fe612a7e565b611707826119c7565b6040518060800160405290815f82018054611721906133d1565b80601f016020809104026020016040519081016040528092919081815260200182805461174d906133d1565b80156117985780601f1061176f57610100808354040283529160200191611798565b820191905f5260205f20905b81548152906001019060200180831161177b57829003601f168201915b505050505081526020016001820154815260200160028201548152602001600382015f9054906101000a900460ff1615151515815250509050919050565b7f50bb68bef9670e62a9c3fd58243f7647e87acb27108ef5a03225f3cd31d27b4781565b5f7f80ac58cd000000000000000000000000000000000000000000000000000000007bffffffffffffffffffffffffffffffffffffffffffffffffffffffff1916827bffffffffffffffffffffffffffffffffffffffffffffffffffffffff191614806118c457507f5b5e139f000000000000000000000000000000000000000000000000000000007bffffffffffffffffffffffffffffffffffffffffffffffffffffffff1916827bffffffffffffffffffffffffffffffffffffffffffffffffffffffff1916145b806118d457506118d3826122da565b5b9050919050565b5f5f6118e683612353565b90505f73ffffffffffffffffffffffffffffffffffffffff168173ffffffffffffffffffffffffffffffffffffffff160361195857826040517f7e27328900000000000000000000000000000000000000000000000000000000815260040161194f9190612f26565b60405180910390fd5b80915050919050565b5f60055f8381526020019081526020015f205f9054906101000a900473ffffffffffffffffffffffffffffffffffffffff169050919050565b5f33905090565b6119ae838383600161238c565b505050565b6119c4816119bf61199a565b61254b565b50565b5f600a5f8381526020019081526020015f205f9054906101000a900460ff16611a2757816040517f7049a7cc000000000000000000000000000000000000000000000000000000008152600401611a1e9190612f26565b60405180910390fd5b60095f8381526020019081526020015f209050919050565b5f5f611a4a84612353565b90505f73ffffffffffffffffffffffffffffffffffffffff168373ffffffffffffffffffffffffffffffffffffffff1614611a8b57611a8a81848661259c565b5b5f73ffffffffffffffffffffffffffffffffffffffff168173ffffffffffffffffffffffffffffffffffffffff1614611b1657611aca5f855f5f61238c565b600160045f8373ffffffffffffffffffffffffffffffffffffffff1673ffffffffffffffffffffffffffffffffffffffff1681526020019081526020015f205f82825403925050819055505b5f73ffffffffffffffffffffffffffffffffffffffff168573ffffffffffffffffffffffffffffffffffffffff1614611b9557600160045f8773ffffffffffffffffffffffffffffffffffffffff1673ffffffffffffffffffffffffffffffffffffffff1681526020019081526020015f205f82825401925050819055505b8460035f8681526020019081526020015f205f6101000a81548173ffffffffffffffffffffffffffffffffffffffff021916908373ffffffffffffffffffffffffffffffffffffffff160217905550838573ffffffffffffffffffffffffffffffffffffffff168273ffffffffffffffffffffffffffffffffffffffff167fddf252ad1be2c89b69c2b068fc378daa952ba7f163c4a11628f55a4df523b3ef60405160405180910390a4809150509392505050565b5f611c558383611417565b611d295760015f5f8581526020019081526020015f205f015f8473ffffffffffffffffffffffffffffffffffffffff1673ffffffffffffffffffffffffffffffffffffffff1681526020019081526020015f205f6101000a81548160ff021916908315150217905550611cc661199a565b73ffffffffffffffffffffffffffffffffffffffff168273ffffffffffffffffffffffffffffffffffffffff16847f2f8788117e7eff1d82e926ec794901d17c78024a50270940304540a733656f0d60405160405180910390a460019050611d2d565b5f90505b92915050565b611d3b61265f565b6002611d4d611d486126a0565b6126c9565b5f0181905550565b611d6e828260405180602001604052805f8152506126d2565b5050565b6001611d84611d7f6126a0565b6126c9565b5f0181905550565b5f611d978383611417565b15611e6b575f5f5f8581526020019081526020015f205f015f8473ffffffffffffffffffffffffffffffffffffffff1673ffffffffffffffffffffffffffffffffffffffff1681526020019081526020015f205f6101000a81548160ff021916908315150217905550611e0861199a565b73ffffffffffffffffffffffffffffffffffffffff168273ffffffffffffffffffffffffffffffffffffffff16847ff6391f5c32d9c69d2a47ea670b442974b53935d1edc7fd64eb21e047a839171b60405160405180910390a460019050611e6f565b5f90505b92915050565b5f73ffffffffffffffffffffffffffffffffffffffff168373ffffffffffffffffffffffffffffffffffffffff1603611ee5575f6040517fa9fbf51f000000000000000000000000000000000000000000000000000000008152600401611edc9190612c96565b60405180910390fd5b5f73ffffffffffffffffffffffffffffffffffffffff168273ffffffffffffffffffffffffffffffffffffffff1603611f5557816040517f5b08ba18000000000000000000000000000000000000000000000000000000008152600401611f4c9190612c96565b60405180910390fd5b8060065f8573ffffffffffffffffffffffffffffffffffffffff1673ffffffffffffffffffffffffffffffffffffffff1681526020019081526020015f205f8473ffffffffffffffffffffffffffffffffffffffff1673ffffffffffffffffffffffffffffffffffffffff1681526020019081526020015f205f6101000a81548160ff0219169083151502179055508173ffffffffffffffffffffffffffffffffffffffff168373ffffffffffffffffffffffffffffffffffffffff167f17307eab39ab6107e8899845ad3d59bd9653f200f220920489ca2b5937696c31836040516120419190612b50565b60405180910390a3505050565b5f8373ffffffffffffffffffffffffffffffffffffffff163b11156121f3578273ffffffffffffffffffffffffffffffffffffffff1663150b7a02868685856040518563ffffffff1660e01b81526004016120ac9493929190613902565b6020604051808303815f875af19250505080156120e757506040513d601f19601f820116820180604052508101906120e49190613960565b60015b612168573d805f8114612115576040519150601f19603f3d011682016040523d82523d5f602084013e61211a565b606091505b505f81510361216057836040517f64a0ae920000000000000000000000000000000000000000000000000000000081526004016121579190612c96565b60405180910390fd5b805160208201fd5b63150b7a0260e01b7bffffffffffffffffffffffffffffffffffffffffffffffffffffffff1916817bffffffffffffffffffffffffffffffffffffffffffffffffffffffff1916146121f157836040517f64a0ae920000000000000000000000000000000000000000000000000000000081526004016121e89190612c96565b60405180910390fd5b505b5050505050565b606060405180602001604052805f815250905090565b60605f600161221e846126f5565b0190505f8167ffffffffffffffff81111561223c5761223b613014565b5b6040519080825280601f01601f19166020018201604052801561226e5781602001600182028036833780820191505090505b5090505f82602083010190505b6001156122cf578080600190039150507f3031323334353637383961626364656600000000000000000000000000000000600a86061a8153600a85816122c4576122c361398b565b5b0494505f850361227b575b819350505050919050565b5f7f7965db0b000000000000000000000000000000000000000000000000000000007bffffffffffffffffffffffffffffffffffffffffffffffffffffffff1916827bffffffffffffffffffffffffffffffffffffffffffffffffffffffff1916148061234c575061234b82612846565b5b9050919050565b5f60035f8381526020019081526020015f205f9054906101000a900473ffffffffffffffffffffffffffffffffffffffff169050919050565b80806123c457505f73ffffffffffffffffffffffffffffffffffffffff168273ffffffffffffffffffffffffffffffffffffffff1614155b156124f6575f6123d3846118db565b90505f73ffffffffffffffffffffffffffffffffffffffff168373ffffffffffffffffffffffffffffffffffffffff161415801561243d57508273ffffffffffffffffffffffffffffffffffffffff168173ffffffffffffffffffffffffffffffffffffffff1614155b8015612450575061244e8184611668565b155b1561249257826040517fa9fbf51f0000000000000000000000000000000000000000000000000000000081526004016124899190612c96565b60405180910390fd5b81156124f457838573ffffffffffffffffffffffffffffffffffffffff168273ffffffffffffffffffffffffffffffffffffffff167f8c5be1e5ebec7d5bd14f71427d1e84f3dd0314c0f7b2291e5b200ac8c7c3b92560405160405180910390a45b505b8360055f8581526020019081526020015f205f6101000a81548173ffffffffffffffffffffffffffffffffffffffff021916908373ffffffffffffffffffffffffffffffffffffffff16021790555050505050565b6125558282611417565b6125985780826040517fe2517d3f00000000000000000000000000000000000000000000000000000000815260040161258f9291906139b8565b60405180910390fd5b5050565b6125a78383836128af565b61265a575f73ffffffffffffffffffffffffffffffffffffffff168373ffffffffffffffffffffffffffffffffffffffff160361261b57806040517f7e2732890000000000000000000000000000000000000000000000000000000081526004016126129190612f26565b60405180910390fd5b81816040517f177e802f0000000000000000000000000000000000000000000000000000000081526004016126519291906139df565b60405180910390fd5b505050565b61266761296f565b1561269e576040517f3ee5aeb500000000000000000000000000000000000000000000000000000000815260040160405180910390fd5b565b5f7f9b779b17422d0df92223018b32b4d1fa46e071723d6817e2486d003becc55f005f1b905090565b5f819050919050565b6126dc838361298b565b6126f06126e761199a565b5f85858561204e565b505050565b5f5f5f90507a184f03e93ff9f4daa797ed6e38ed64bf6a1f0100000000000000008310612751577a184f03e93ff9f4daa797ed6e38ed64bf6a1f01000000000000000083816127475761274661398b565b5b0492506040810190505b6d04ee2d6d415b85acef8100000000831061278e576d04ee2d6d415b85acef810000000083816127845761278361398b565b5b0492506020810190505b662386f26fc1000083106127bd57662386f26fc1000083816127b3576127b261398b565b5b0492506010810190505b6305f5e10083106127e6576305f5e10083816127dc576127db61398b565b5b0492506008810190505b612710831061280b5761271083816128015761280061398b565b5b0492506004810190505b6064831061282e57606483816128245761282361398b565b5b0492506002810190505b600a831061283d576001810190505b80915050919050565b5f7f01ffc9a7000000000000000000000000000000000000000000000000000000007bffffffffffffffffffffffffffffffffffffffffffffffffffffffff1916827bffffffffffffffffffffffffffffffffffffffffffffffffffffffff1916149050919050565b5f5f73ffffffffffffffffffffffffffffffffffffffff168373ffffffffffffffffffffffffffffffffffffffff161415801561296657508273ffffffffffffffffffffffffffffffffffffffff168473ffffffffffffffffffffffffffffffffffffffff16148061292757506129268484611668565b5b8061296557508273ffffffffffffffffffffffffffffffffffffffff1661294d83611961565b73ffffffffffffffffffffffffffffffffffffffff16145b5b90509392505050565b5f600261298261297d6126a0565b6126c9565b5f015414905090565b5f73ffffffffffffffffffffffffffffffffffffffff168273ffffffffffffffffffffffffffffffffffffffff16036129fb575f6040517f64a0ae920000000000000000000000000000000000000000000000000000000081526004016129f29190612c96565b60405180910390fd5b5f612a0783835f611a3f565b90505f73ffffffffffffffffffffffffffffffffffffffff168173ffffffffffffffffffffffffffffffffffffffff1614612a79575f6040517f73c6ac6e000000000000000000000000000000000000000000000000000000008152600401612a709190612c96565b60405180910390fd5b505050565b6040518060800160405280606081526020015f81526020015f81526020015f151581525090565b5f604051905090565b5f5ffd5b5f5ffd5b5f7fffffffff0000000000000000000000000000000000000000000000000000000082169050919050565b612aea81612ab6565b8114612af4575f5ffd5b50565b5f81359050612b0581612ae1565b92915050565b5f60208284031215612b2057612b1f612aae565b5b5f612b2d84828501612af7565b91505092915050565b5f8115159050919050565b612b4a81612b36565b82525050565b5f602082019050612b635f830184612b41565b92915050565b5f81519050919050565b5f82825260208201905092915050565b8281835e5f83830152505050565b5f601f19601f8301169050919050565b5f612bab82612b69565b612bb58185612b73565b9350612bc5818560208601612b83565b612bce81612b91565b840191505092915050565b5f6020820190508181035f830152612bf18184612ba1565b905092915050565b5f819050919050565b612c0b81612bf9565b8114612c15575f5ffd5b50565b5f81359050612c2681612c02565b92915050565b5f60208284031215612c4157612c40612aae565b5b5f612c4e84828501612c18565b91505092915050565b5f73ffffffffffffffffffffffffffffffffffffffff82169050919050565b5f612c8082612c57565b9050919050565b612c9081612c76565b82525050565b5f602082019050612ca95f830184612c87565b92915050565b612cb881612c76565b8114612cc2575f5ffd5b50565b5f81359050612cd381612caf565b92915050565b5f5f60408385031215612cef57612cee612aae565b5b5f612cfc85828601612cc5565b9250506020612d0d85828601612c18565b9150509250929050565b612d2081612bf9565b82525050565b5f6040820190508181035f830152612d3e8185612ba1565b9050612d4d6020830184612d17565b9392505050565b5f5f5f60608486031215612d6b57612d6a612aae565b5b5f612d7886828701612cc5565b9350506020612d8986828701612cc5565b9250506040612d9a86828701612c18565b9150509250925092565b5f819050919050565b612db681612da4565b8114612dc0575f5ffd5b50565b5f81359050612dd181612dad565b92915050565b5f60208284031215612dec57612deb612aae565b5b5f612df984828501612dc3565b91505092915050565b612e0b81612da4565b82525050565b5f602082019050612e245f830184612e02565b92915050565b5f5f60408385031215612e4057612e3f612aae565b5b5f612e4d85828601612dc3565b9250506020612e5e85828601612cc5565b9150509250929050565b5f5ffd5b5f5ffd5b5f5ffd5b5f5f83601f840112612e8957612e88612e68565b5b8235905067ffffffffffffffff811115612ea657612ea5612e6c565b5b602083019150836001820283011115612ec257612ec1612e70565b5b9250929050565b5f5f5f60408486031215612ee057612edf612aae565b5b5f84013567ffffffffffffffff811115612efd57612efc612ab2565b5b612f0986828701612e74565b93509350506020612f1c86828701612c18565b9150509250925092565b5f602082019050612f395f830184612d17565b92915050565b5f60208284031215612f5457612f53612aae565b5b5f612f6184828501612cc5565b91505092915050565b612f7381612b36565b8114612f7d575f5ffd5b50565b5f81359050612f8e81612f6a565b92915050565b5f5f60408385031215612faa57612fa9612aae565b5b5f612fb785828601612cc5565b9250506020612fc885828601612f80565b9150509250929050565b5f5f60408385031215612fe857612fe7612aae565b5b5f612ff585828601612c18565b925050602061300685828601612cc5565b9150509250929050565b5f5ffd5b7f4e487b71000000000000000000000000000000000000000000000000000000005f52604160045260245ffd5b61304a82612b91565b810181811067ffffffffffffffff8211171561306957613068613014565b5b80604052505050565b5f61307b612aa5565b90506130878282613041565b919050565b5f67ffffffffffffffff8211156130a6576130a5613014565b5b6130af82612b91565b9050602081019050919050565b828183375f83830152505050565b5f6130dc6130d78461308c565b613072565b9050828152602081018484840111156130f8576130f7613010565b5b6131038482856130bc565b509392505050565b5f82601f83011261311f5761311e612e68565b5b813561312f8482602086016130ca565b91505092915050565b5f5f5f5f608085870312156131505761314f612aae565b5b5f61315d87828801612cc5565b945050602061316e87828801612cc5565b935050604061317f87828801612c18565b925050606085013567ffffffffffffffff8111156131a05761319f612ab2565b5b6131ac8782880161310b565b91505092959194509250565b5f81519050919050565b5f82825260208201905092915050565b5f819050602082019050919050565b6131ea81612bf9565b82525050565b5f6131fb83836131e1565b60208301905092915050565b5f602082019050919050565b5f61321d826131b8565b61322781856131c2565b9350613232836131d2565b805f5b8381101561326257815161324988826131f0565b975061325483613207565b925050600181019050613235565b5085935050505092915050565b5f6020820190508181035f8301526132878184613213565b905092915050565b5f5f604083850312156132a5576132a4612aae565b5b5f6132b285828601612cc5565b92505060206132c385828601612cc5565b9150509250929050565b5f82825260208201905092915050565b5f6132e782612b69565b6132f181856132cd565b9350613301818560208601612b83565b61330a81612b91565b840191505092915050565b61331e81612b36565b82525050565b5f608083015f8301518482035f86015261333e82826132dd565b915050602083015161335360208601826131e1565b50604083015161336660408601826131e1565b5060608301516133796060860182613315565b508091505092915050565b5f6020820190508181035f83015261339c8184613324565b905092915050565b7f4e487b71000000000000000000000000000000000000000000000000000000005f52602260045260245ffd5b5f60028204905060018216806133e857607f821691505b6020821081036133fb576133fa6133a4565b5b50919050565b5f6060820190506134145f830186612d17565b6134216020830185612d17565b61342e6040830184612d17565b949350505050565b5f6040820190506134495f830185612d17565b6134566020830184612c87565b9392505050565b5f6060820190506134705f830186612c87565b61347d6020830185612d17565b61348a6040830184612c87565b949350505050565b5f819050919050565b6134ac6134a782612bf9565b613492565b82525050565b5f8160601b9050919050565b5f6134c8826134b2565b9050919050565b5f6134d9826134be565b9050919050565b6134f16134ec82612c76565b6134cf565b82525050565b5f81905092915050565b5f61350c83856134f7565b93506135198385846130bc565b82840190509392505050565b5f613530828a61349b565b602082019150613540828961349b565b60208201915061355082886134e0565b601482019150613561828688613501565b915061356d828561349b565b60208201915061357d828461349b565b60208201915081905098975050505050505050565b5f819050815f5260205f209050919050565b5f6020601f8301049050919050565b5f82821b905092915050565b5f600883026135ee7fffffffffffffffffffffffffffffffffffffffffffffffffffffffffffffffff826135b3565b6135f886836135b3565b95508019841693508086168417925050509392505050565b5f819050919050565b5f61363361362e61362984612bf9565b613610565b612bf9565b9050919050565b5f819050919050565b61364c83613619565b6136606136588261363a565b8484546135bf565b825550505050565b5f5f905090565b613677613668565b613682818484613643565b505050565b5b818110156136a55761369a5f8261366f565b600181019050613688565b5050565b601f8211156136ea576136bb81613592565b6136c4846135a4565b810160208510156136d3578190505b6136e76136df856135a4565b830182613687565b50505b505050565b5f82821c905092915050565b5f61370a5f19846008026136ef565b1980831691505092915050565b5f61372283836136fb565b9150826002028217905092915050565b61373b82612b69565b67ffffffffffffffff81111561375457613753613014565b5b61375e82546133d1565b6137698282856136a9565b5f60209050601f83116001811461379a575f8415613788578287015190505b6137928582613717565b8655506137f9565b601f1984166137a886613592565b5f5b828110156137cf578489015182556001820191506020850194506020810190506137aa565b868310156137ec57848901516137e8601f8916826136fb565b8355505b6001600288020188555050505b505050505050565b5f61380c8385612b73565b93506138198385846130bc565b61382283612b91565b840190509392505050565b5f6040820190508181035f830152613846818587613801565b90506138556020830184612d17565b949350505050565b5f61386782612b69565b61387181856134f7565b9350613881818560208601612b83565b80840191505092915050565b5f613898828561385d565b91506138a4828461385d565b91508190509392505050565b5f81519050919050565b5f82825260208201905092915050565b5f6138d4826138b0565b6138de81856138ba565b93506138ee818560208601612b83565b6138f781612b91565b840191505092915050565b5f6080820190506139155f830187612c87565b6139226020830186612c87565b61392f6040830185612d17565b818103606083015261394181846138ca565b905095945050505050565b5f8151905061395a81612ae1565b92915050565b5f6020828403121561397557613974612aae565b5b5f6139828482850161394c565b91505092915050565b7f4e487b71000000000000000000000000000000000000000000000000000000005f52601260045260245ffd5b5f6040820190506139cb5f830185612c87565b6139d86020830184612e02565b9392505050565b5f6040820190506139f25f830185612c87565b6139ff6020830184612d17565b939250505056fea264697066735822122097a9554c5effef0cad7e7db51bf250579da2e99db3e7978b06d6ba4859898ecd64736f6c634300081c0033","opcodes":"PUSH1 0x80 PUSH1 0x40 MSTORE CALLVALUE DUP1 ISZERO PUSH2 0xF JUMPI PUSH0 PUSH0 REVERT JUMPDEST POP PUSH1 0x40 MLOAD PUSH2 0x41FD CODESIZE SUB DUP1 PUSH2 0x41FD DUP4 CODECOPY DUP2 DUP2 ADD PUSH1 0x40 MSTORE DUP2 ADD SWAP1 PUSH2 0x31 SWAP2 SWAP1 PUSH2 0x47D JUMP JUMPDEST PUSH1 0x40 MLOAD DUP1 PUSH1 0x40 ADD PUSH1 0x40 MSTORE DUP1 PUSH1 0xD DUP2 MSTORE PUSH1 0x20 ADD PUSH32 0x4564754163636573735061737300000000000000000000000000000000000000 DUP2 MSTORE POP PUSH1 0x40 MLOAD DUP1 PUSH1 0x40 ADD PUSH1 0x40 MSTORE DUP1 PUSH1 0x7 DUP2 MSTORE PUSH1 0x20 ADD PUSH32 0x4544555041535300000000000000000000000000000000000000000000000000 DUP2 MSTORE POP DUP2 PUSH1 0x1 SWAP1 DUP2 PUSH2 0xAC SWAP2 SWAP1 PUSH2 0x6E5 JUMP JUMPDEST POP DUP1 PUSH1 0x2 SWAP1 DUP2 PUSH2 0xBC SWAP2 SWAP1 PUSH2 0x6E5 JUMP JUMPDEST POP POP POP PUSH1 0x1 PUSH2 0xDD PUSH2 0xD2 PUSH2 0x214 PUSH1 0x20 SHL PUSH1 0x20 SHR JUMP JUMPDEST PUSH2 0x23D PUSH1 0x20 SHL PUSH1 0x20 SHR JUMP JUMPDEST PUSH0 ADD DUP2 SWAP1 SSTORE POP PUSH0 PUSH20 0xFFFFFFFFFFFFFFFFFFFFFFFFFFFFFFFFFFFFFFFF AND DUP2 PUSH20 0xFFFFFFFFFFFFFFFFFFFFFFFFFFFFFFFFFFFFFFFF AND SUB PUSH2 0x148 JUMPI PUSH1 0x40 MLOAD PUSH32 0xE6C4247B00000000000000000000000000000000000000000000000000000000 DUP2 MSTORE PUSH1 0x4 ADD PUSH1 0x40 MLOAD DUP1 SWAP2 SUB SWAP1 REVERT JUMPDEST PUSH2 0x15A PUSH0 PUSH0 SHL DUP3 PUSH2 0x246 PUSH1 0x20 SHL PUSH1 0x20 SHR JUMP JUMPDEST POP PUSH2 0x18B PUSH32 0xA49807205CE4D355092EF5A8A18F56E8913CF4A201FBE287825B095693C21775 DUP3 PUSH2 0x246 PUSH1 0x20 SHL PUSH1 0x20 SHR JUMP JUMPDEST POP PUSH2 0x1BE PUSH32 0xA49807205CE4D355092EF5A8A18F56E8913CF4A201FBE287825B095693C21775 PUSH0 PUSH0 SHL PUSH2 0x33B PUSH1 0x20 SHL PUSH1 0x20 SHR JUMP JUMPDEST PUSH2 0x20E PUSH32 0x50BB68BEF9670E62A9C3FD58243F7647E87ACB27108EF5A03225F3CD31D27B47 PUSH32 0xA49807205CE4D355092EF5A8A18F56E8913CF4A201FBE287825B095693C21775 PUSH2 0x33B PUSH1 0x20 SHL PUSH1 0x20 SHR JUMP JUMPDEST POP PUSH2 0x7B4 JUMP JUMPDEST PUSH0 PUSH32 0x9B779B17422D0DF92223018B32B4D1FA46E071723D6817E2486D003BECC55F00 PUSH0 SHL SWAP1 POP SWAP1 JUMP JUMPDEST PUSH0 DUP2 SWAP1 POP SWAP2 SWAP1 POP JUMP JUMPDEST PUSH0 PUSH2 0x257 DUP4 DUP4 PUSH2 0x399 PUSH1 0x20 SHL PUSH1 0x20 SHR JUMP JUMPDEST PUSH2 0x331 JUMPI PUSH1 0x1 PUSH0 PUSH0 DUP6 DUP2 MSTORE PUSH1 0x20 ADD SWAP1 DUP2 MSTORE PUSH1 0x20 ADD PUSH0 KECCAK256 PUSH0 ADD PUSH0 DUP5 PUSH20 0xFFFFFFFFFFFFFFFFFFFFFFFFFFFFFFFFFFFFFFFF AND PUSH20 0xFFFFFFFFFFFFFFFFFFFFFFFFFFFFFFFFFFFFFFFF AND DUP2 MSTORE PUSH1 0x20 ADD SWAP1 DUP2 MSTORE PUSH1 0x20 ADD PUSH0 KECCAK256 PUSH0 PUSH2 0x100 EXP DUP2 SLOAD DUP2 PUSH1 0xFF MUL NOT AND SWAP1 DUP4 ISZERO ISZERO MUL OR SWAP1 SSTORE POP PUSH2 0x2CE PUSH2 0x3FC PUSH1 0x20 SHL PUSH1 0x20 SHR JUMP JUMPDEST PUSH20 0xFFFFFFFFFFFFFFFFFFFFFFFFFFFFFFFFFFFFFFFF AND DUP3 PUSH20 0xFFFFFFFFFFFFFFFFFFFFFFFFFFFFFFFFFFFFFFFF AND DUP5 PUSH32 0x2F8788117E7EFF1D82E926EC794901D17C78024A50270940304540A733656F0D PUSH1 0x40 MLOAD PUSH1 0x40 MLOAD DUP1 SWAP2 SUB SWAP1 LOG4 PUSH1 0x1 SWAP1 POP PUSH2 0x335 JUMP JUMPDEST PUSH0 SWAP1 POP JUMPDEST SWAP3 SWAP2 POP POP JUMP JUMPDEST PUSH0 PUSH2 0x34B DUP4 PUSH2 0x403 PUSH1 0x20 SHL PUSH1 0x20 SHR JUMP JUMPDEST SWAP1 POP DUP2 PUSH0 PUSH0 DUP6 DUP2 MSTORE PUSH1 0x20 ADD SWAP1 DUP2 MSTORE PUSH1 0x20 ADD PUSH0 KECCAK256 PUSH1 0x1 ADD DUP2 SWAP1 SSTORE POP DUP2 DUP2 DUP5 PUSH32 0xBD79B86FFE0AB8E8776151514217CD7CACD52C909F66475C3AF44E129F0B00FF PUSH1 0x40 MLOAD PUSH1 0x40 MLOAD DUP1 SWAP2 SUB SWAP1 LOG4 POP POP POP JUMP JUMPDEST PUSH0 PUSH0 PUSH0 DUP5 DUP2 MSTORE PUSH1 0x20 ADD SWAP1 DUP2 MSTORE PUSH1 0x20 ADD PUSH0 KECCAK256 PUSH0 ADD PUSH0 DUP4 PUSH20 0xFFFFFFFFFFFFFFFFFFFFFFFFFFFFFFFFFFFFFFFF AND PUSH20 0xFFFFFFFFFFFFFFFFFFFFFFFFFFFFFFFFFFFFFFFF AND DUP2 MSTORE PUSH1 0x20 ADD SWAP1 DUP2 MSTORE PUSH1 0x20 ADD PUSH0 KECCAK256 PUSH0 SWAP1 SLOAD SWAP1 PUSH2 0x100 EXP SWAP1 DIV PUSH1 0xFF AND SWAP1 POP SWAP3 SWAP2 POP POP JUMP JUMPDEST PUSH0 CALLER SWAP1 POP SWAP1 JUMP JUMPDEST PUSH0 PUSH0 PUSH0 DUP4 DUP2 MSTORE PUSH1 0x20 ADD SWAP1 DUP2 MSTORE PUSH1 0x20 ADD PUSH0 KECCAK256 PUSH1 0x1 ADD SLOAD SWAP1 POP SWAP2 SWAP1 POP JUMP JUMPDEST PUSH0 PUSH0 REVERT JUMPDEST PUSH0 PUSH20 0xFFFFFFFFFFFFFFFFFFFFFFFFFFFFFFFFFFFFFFFF DUP3 AND SWAP1 POP SWAP2 SWAP1 POP JUMP JUMPDEST PUSH0 PUSH2 0x44C DUP3 PUSH2 0x423 JUMP JUMPDEST SWAP1 POP SWAP2 SWAP1 POP JUMP JUMPDEST PUSH2 0x45C DUP2 PUSH2 0x442 JUMP JUMPDEST DUP2 EQ PUSH2 0x466 JUMPI PUSH0 PUSH0 REVERT JUMPDEST POP JUMP JUMPDEST PUSH0 DUP2 MLOAD SWAP1 POP PUSH2 0x477 DUP2 PUSH2 0x453 JUMP JUMPDEST SWAP3 SWAP2 POP POP JUMP JUMPDEST PUSH0 PUSH1 0x20 DUP3 DUP5 SUB SLT ISZERO PUSH2 0x492 JUMPI PUSH2 0x491 PUSH2 0x41F JUMP JUMPDEST JUMPDEST PUSH0 PUSH2 0x49F DUP5 DUP3 DUP6 ADD PUSH2 0x469 JUMP JUMPDEST SWAP2 POP POP SWAP3 SWAP2 POP POP JUMP JUMPDEST PUSH0 DUP2 MLOAD SWAP1 POP SWAP2 SWAP1 POP JUMP JUMPDEST PUSH32 0x4E487B7100000000000000000000000000000000000000000000000000000000 PUSH0 MSTORE PUSH1 0x41 PUSH1 0x4 MSTORE PUSH1 0x24 PUSH0 REVERT JUMPDEST PUSH32 0x4E487B7100000000000000000000000000000000000000000000000000000000 PUSH0 MSTORE PUSH1 0x22 PUSH1 0x4 MSTORE PUSH1 0x24 PUSH0 REVERT JUMPDEST PUSH0 PUSH1 0x2 DUP3 DIV SWAP1 POP PUSH1 0x1 DUP3 AND DUP1 PUSH2 0x523 JUMPI PUSH1 0x7F DUP3 AND SWAP2 POP JUMPDEST PUSH1 0x20 DUP3 LT DUP2 SUB PUSH2 0x536 JUMPI PUSH2 0x535 PUSH2 0x4DF JUMP JUMPDEST JUMPDEST POP SWAP2 SWAP1 POP JUMP JUMPDEST PUSH0 DUP2 SWAP1 POP DUP2 PUSH0 MSTORE PUSH1 0x20 PUSH0 KECCAK256 SWAP1 POP SWAP2 SWAP1 POP JUMP JUMPDEST PUSH0 PUSH1 0x20 PUSH1 0x1F DUP4 ADD DIV SWAP1 POP SWAP2 SWAP1 POP JUMP JUMPDEST PUSH0 DUP3 DUP3 SHL SWAP1 POP SWAP3 SWAP2 POP POP JUMP JUMPDEST PUSH0 PUSH1 0x8 DUP4 MUL PUSH2 0x598 PUSH32 0xFFFFFFFFFFFFFFFFFFFFFFFFFFFFFFFFFFFFFFFFFFFFFFFFFFFFFFFFFFFFFFFF DUP3 PUSH2 0x55D JUMP JUMPDEST PUSH2 0x5A2 DUP7 DUP4 PUSH2 0x55D JUMP JUMPDEST SWAP6 POP DUP1 NOT DUP5 AND SWAP4 POP DUP1 DUP7 AND DUP5 OR SWAP3 POP POP POP SWAP4 SWAP3 POP POP POP JUMP JUMPDEST PUSH0 DUP2 SWAP1 POP SWAP2 SWAP1 POP JUMP JUMPDEST PUSH0 DUP2 SWAP1 POP SWAP2 SWAP1 POP JUMP JUMPDEST PUSH0 PUSH2 0x5E6 PUSH2 0x5E1 PUSH2 0x5DC DUP5 PUSH2 0x5BA JUMP JUMPDEST PUSH2 0x5C3 JUMP JUMPDEST PUSH2 0x5BA JUMP JUMPDEST SWAP1 POP SWAP2 SWAP1 POP JUMP JUMPDEST PUSH0 DUP2 SWAP1 POP SWAP2 SWAP1 POP JUMP JUMPDEST PUSH2 0x5FF DUP4 PUSH2 0x5CC JUMP JUMPDEST PUSH2 0x613 PUSH2 0x60B DUP3 PUSH2 0x5ED JUMP JUMPDEST DUP5 DUP5 SLOAD PUSH2 0x569 JUMP JUMPDEST DUP3 SSTORE POP POP POP POP JUMP JUMPDEST PUSH0 PUSH0 SWAP1 POP SWAP1 JUMP JUMPDEST PUSH2 0x62A PUSH2 0x61B JUMP JUMPDEST PUSH2 0x635 DUP2 DUP5 DUP5 PUSH2 0x5F6 JUMP JUMPDEST POP POP POP JUMP JUMPDEST JUMPDEST DUP2 DUP2 LT ISZERO PUSH2 0x658 JUMPI PUSH2 0x64D PUSH0 DUP3 PUSH2 0x622 JUMP JUMPDEST PUSH1 0x1 DUP2 ADD SWAP1 POP PUSH2 0x63B JUMP JUMPDEST POP POP JUMP JUMPDEST PUSH1 0x1F DUP3 GT ISZERO PUSH2 0x69D JUMPI PUSH2 0x66E DUP2 PUSH2 0x53C JUMP JUMPDEST PUSH2 0x677 DUP5 PUSH2 0x54E JUMP JUMPDEST DUP2 ADD PUSH1 0x20 DUP6 LT ISZERO PUSH2 0x686 JUMPI DUP2 SWAP1 POP JUMPDEST PUSH2 0x69A PUSH2 0x692 DUP6 PUSH2 0x54E JUMP JUMPDEST DUP4 ADD DUP3 PUSH2 0x63A JUMP JUMPDEST POP POP JUMPDEST POP POP POP JUMP JUMPDEST PUSH0 DUP3 DUP3 SHR SWAP1 POP SWAP3 SWAP2 POP POP JUMP JUMPDEST PUSH0 PUSH2 0x6BD PUSH0 NOT DUP5 PUSH1 0x8 MUL PUSH2 0x6A2 JUMP JUMPDEST NOT DUP1 DUP4 AND SWAP2 POP POP SWAP3 SWAP2 POP POP JUMP JUMPDEST PUSH0 PUSH2 0x6D5 DUP4 DUP4 PUSH2 0x6AE JUMP JUMPDEST SWAP2 POP DUP3 PUSH1 0x2 MUL DUP3 OR SWAP1 POP SWAP3 SWAP2 POP POP JUMP JUMPDEST PUSH2 0x6EE DUP3 PUSH2 0x4A8 JUMP JUMPDEST PUSH8 0xFFFFFFFFFFFFFFFF DUP2 GT ISZERO PUSH2 0x707 JUMPI PUSH2 0x706 PUSH2 0x4B2 JUMP JUMPDEST JUMPDEST PUSH2 0x711 DUP3 SLOAD PUSH2 0x50C JUMP JUMPDEST PUSH2 0x71C DUP3 DUP3 DUP6 PUSH2 0x65C JUMP JUMPDEST PUSH0 PUSH1 0x20 SWAP1 POP PUSH1 0x1F DUP4 GT PUSH1 0x1 DUP2 EQ PUSH2 0x74D JUMPI PUSH0 DUP5 ISZERO PUSH2 0x73B JUMPI DUP3 DUP8 ADD MLOAD SWAP1 POP JUMPDEST PUSH2 0x745 DUP6 DUP3 PUSH2 0x6CA JUMP JUMPDEST DUP7 SSTORE POP PUSH2 0x7AC JUMP JUMPDEST PUSH1 0x1F NOT DUP5 AND PUSH2 0x75B DUP7 PUSH2 0x53C JUMP JUMPDEST PUSH0 JUMPDEST DUP3 DUP2 LT ISZERO PUSH2 0x782 JUMPI DUP5 DUP10 ADD MLOAD DUP3 SSTORE PUSH1 0x1 DUP3 ADD SWAP2 POP PUSH1 0x20 DUP6 ADD SWAP5 POP PUSH1 0x20 DUP2 ADD SWAP1 POP PUSH2 0x75D JUMP JUMPDEST DUP7 DUP4 LT ISZERO PUSH2 0x79F JUMPI DUP5 DUP10 ADD MLOAD PUSH2 0x79B PUSH1 0x1F DUP10 AND DUP3 PUSH2 0x6AE JUMP JUMPDEST DUP4 SSTORE POP JUMPDEST PUSH1 0x1 PUSH1 0x2 DUP9 MUL ADD DUP9 SSTORE POP POP POP JUMPDEST POP POP POP POP POP POP JUMP JUMPDEST PUSH2 0x3A3C DUP1 PUSH2 0x7C1 PUSH0 CODECOPY PUSH0 RETURN INVALID PUSH1 0x80 PUSH1 0x40 MSTORE CALLVALUE DUP1 ISZERO PUSH2 0xF JUMPI PUSH0 PUSH0 REVERT JUMPDEST POP PUSH1 0x4 CALLDATASIZE LT PUSH2 0x204 JUMPI PUSH0 CALLDATALOAD PUSH1 0xE0 SHR DUP1 PUSH4 0x75794A3C GT PUSH2 0x118 JUMPI DUP1 PUSH4 0xB3402C1A GT PUSH2 0xAB JUMPI DUP1 PUSH4 0xD547741F GT PUSH2 0x7A JUMPI DUP1 PUSH4 0xD547741F EQ PUSH2 0x621 JUMPI DUP1 PUSH4 0xDDE288E5 EQ PUSH2 0x63D JUMPI DUP1 PUSH4 0xE985E9C5 EQ PUSH2 0x66D JUMPI DUP1 PUSH4 0xECDC68FB EQ PUSH2 0x69D JUMPI DUP1 PUSH4 0xF7BE43FB EQ PUSH2 0x6CD JUMPI PUSH2 0x204 JUMP JUMPDEST DUP1 PUSH4 0xB3402C1A EQ PUSH2 0x587 JUMPI DUP1 PUSH4 0xB88D4FDE EQ PUSH2 0x5B7 JUMPI DUP1 PUSH4 0xC130EFD0 EQ PUSH2 0x5D3 JUMPI DUP1 PUSH4 0xC87B56DD EQ PUSH2 0x5F1 JUMPI PUSH2 0x204 JUMP JUMPDEST DUP1 PUSH4 0x91D14854 GT PUSH2 0xE7 JUMPI DUP1 PUSH4 0x91D14854 EQ PUSH2 0x4FF JUMPI DUP1 PUSH4 0x95D89B41 EQ PUSH2 0x52F JUMPI DUP1 PUSH4 0xA217FDDF EQ PUSH2 0x54D JUMPI DUP1 PUSH4 0xA22CB465 EQ PUSH2 0x56B JUMPI PUSH2 0x204 JUMP JUMPDEST DUP1 PUSH4 0x75794A3C EQ PUSH2 0x489 JUMPI DUP1 PUSH4 0x75B238FC EQ PUSH2 0x4A7 JUMPI DUP1 PUSH4 0x86E5C15A EQ PUSH2 0x4C5 JUMPI DUP1 PUSH4 0x878B9B44 EQ PUSH2 0x4E3 JUMPI PUSH2 0x204 JUMP JUMPDEST DUP1 PUSH4 0x35A5A37F GT PUSH2 0x19B JUMPI DUP1 PUSH4 0x589C9648 GT PUSH2 0x16A JUMPI DUP1 PUSH4 0x589C9648 EQ PUSH2 0x3AD JUMPI DUP1 PUSH4 0x6352211E EQ PUSH2 0x3C9 JUMPI DUP1 PUSH4 0x65E404ED EQ PUSH2 0x3F9 JUMPI DUP1 PUSH4 0x70A08231 EQ PUSH2 0x429 JUMPI DUP1 PUSH4 0x724121AE EQ PUSH2 0x459 JUMPI PUSH2 0x204 JUMP JUMPDEST DUP1 PUSH4 0x35A5A37F EQ PUSH2 0x33B JUMPI DUP1 PUSH4 0x36568ABE EQ PUSH2 0x357 JUMPI DUP1 PUSH4 0x42842E0E EQ PUSH2 0x373 JUMPI DUP1 PUSH4 0x44FCCE23 EQ PUSH2 0x38F JUMPI PUSH2 0x204 JUMP JUMPDEST DUP1 PUSH4 0xB7AD54C GT PUSH2 0x1D7 JUMPI DUP1 PUSH4 0xB7AD54C EQ PUSH2 0x2A2 JUMPI DUP1 PUSH4 0x23B872DD EQ PUSH2 0x2D3 JUMPI DUP1 PUSH4 0x248A9CA3 EQ PUSH2 0x2EF JUMPI DUP1 PUSH4 0x2F2FF15D EQ PUSH2 0x31F JUMPI PUSH2 0x204 JUMP JUMPDEST DUP1 PUSH4 0x1FFC9A7 EQ PUSH2 0x208 JUMPI DUP1 PUSH4 0x6FDDE03 EQ PUSH2 0x238 JUMPI DUP1 PUSH4 0x81812FC EQ PUSH2 0x256 JUMPI DUP1 PUSH4 0x95EA7B3 EQ PUSH2 0x286 JUMPI JUMPDEST PUSH0 PUSH0 REVERT JUMPDEST PUSH2 0x222 PUSH1 0x4 DUP1 CALLDATASIZE SUB DUP2 ADD SWAP1 PUSH2 0x21D SWAP2 SWAP1 PUSH2 0x2B0B JUMP JUMPDEST PUSH2 0x6EB JUMP JUMPDEST PUSH1 0x40 MLOAD PUSH2 0x22F SWAP2 SWAP1 PUSH2 0x2B50 JUMP JUMPDEST PUSH1 0x40 MLOAD DUP1 SWAP2 SUB SWAP1 RETURN JUMPDEST PUSH2 0x240 PUSH2 0x6FC JUMP JUMPDEST PUSH1 0x40 MLOAD PUSH2 0x24D SWAP2 SWAP1 PUSH2 0x2BD9 JUMP JUMPDEST PUSH1 0x40 MLOAD DUP1 SWAP2 SUB SWAP1 RETURN JUMPDEST PUSH2 0x270 PUSH1 0x4 DUP1 CALLDATASIZE SUB DUP2 ADD SWAP1 PUSH2 0x26B SWAP2 SWAP1 PUSH2 0x2C2C JUMP JUMPDEST PUSH2 0x78C JUMP JUMPDEST PUSH1 0x40 MLOAD PUSH2 0x27D SWAP2 SWAP1 PUSH2 0x2C96 JUMP JUMPDEST PUSH1 0x40 MLOAD DUP1 SWAP2 SUB SWAP1 RETURN JUMPDEST PUSH2 0x2A0 PUSH1 0x4 DUP1 CALLDATASIZE SUB DUP2 ADD SWAP1 PUSH2 0x29B SWAP2 SWAP1 PUSH2 0x2CD9 JUMP JUMPDEST PUSH2 0x7A7 JUMP JUMPDEST STOP JUMPDEST PUSH2 0x2BC PUSH1 0x4 DUP1 CALLDATASIZE SUB DUP2 ADD SWAP1 PUSH2 0x2B7 SWAP2 SWAP1 PUSH2 0x2C2C JUMP JUMPDEST PUSH2 0x7BD JUMP JUMPDEST PUSH1 0x40 MLOAD PUSH2 0x2CA SWAP3 SWAP2 SWAP1 PUSH2 0x2D26 JUMP JUMPDEST PUSH1 0x40 MLOAD DUP1 SWAP2 SUB SWAP1 RETURN JUMPDEST PUSH2 0x2ED PUSH1 0x4 DUP1 CALLDATASIZE SUB DUP2 ADD SWAP1 PUSH2 0x2E8 SWAP2 SWAP1 PUSH2 0x2D54 JUMP JUMPDEST PUSH2 0x9D2 JUMP JUMPDEST STOP JUMPDEST PUSH2 0x309 PUSH1 0x4 DUP1 CALLDATASIZE SUB DUP2 ADD SWAP1 PUSH2 0x304 SWAP2 SWAP1 PUSH2 0x2DD7 JUMP JUMPDEST PUSH2 0xAD1 JUMP JUMPDEST PUSH1 0x40 MLOAD PUSH2 0x316 SWAP2 SWAP1 PUSH2 0x2E11 JUMP JUMPDEST PUSH1 0x40 MLOAD DUP1 SWAP2 SUB SWAP1 RETURN JUMPDEST PUSH2 0x339 PUSH1 0x4 DUP1 CALLDATASIZE SUB DUP2 ADD SWAP1 PUSH2 0x334 SWAP2 SWAP1 PUSH2 0x2E2A JUMP JUMPDEST PUSH2 0xAED JUMP JUMPDEST STOP JUMPDEST PUSH2 0x355 PUSH1 0x4 DUP1 CALLDATASIZE SUB DUP2 ADD SWAP1 PUSH2 0x350 SWAP2 SWAP1 PUSH2 0x2CD9 JUMP JUMPDEST PUSH2 0xB0F JUMP JUMPDEST STOP JUMPDEST PUSH2 0x371 PUSH1 0x4 DUP1 CALLDATASIZE SUB DUP2 ADD SWAP1 PUSH2 0x36C SWAP2 SWAP1 PUSH2 0x2E2A JUMP JUMPDEST PUSH2 0xDF4 JUMP JUMPDEST STOP JUMPDEST PUSH2 0x38D PUSH1 0x4 DUP1 CALLDATASIZE SUB DUP2 ADD SWAP1 PUSH2 0x388 SWAP2 SWAP1 PUSH2 0x2D54 JUMP JUMPDEST PUSH2 0xE6F JUMP JUMPDEST STOP JUMPDEST PUSH2 0x397 PUSH2 0xE8E JUMP JUMPDEST PUSH1 0x40 MLOAD PUSH2 0x3A4 SWAP2 SWAP1 PUSH2 0x2E11 JUMP JUMPDEST PUSH1 0x40 MLOAD DUP1 SWAP2 SUB SWAP1 RETURN JUMPDEST PUSH2 0x3C7 PUSH1 0x4 DUP1 CALLDATASIZE SUB DUP2 ADD SWAP1 PUSH2 0x3C2 SWAP2 SWAP1 PUSH2 0x2C2C JUMP JUMPDEST PUSH2 0xEB2 JUMP JUMPDEST STOP JUMPDEST PUSH2 0x3E3 PUSH1 0x4 DUP1 CALLDATASIZE SUB DUP2 ADD SWAP1 PUSH2 0x3DE SWAP2 SWAP1 PUSH2 0x2C2C JUMP JUMPDEST PUSH2 0xF52 JUMP JUMPDEST PUSH1 0x40 MLOAD PUSH2 0x3F0 SWAP2 SWAP1 PUSH2 0x2C96 JUMP JUMPDEST PUSH1 0x40 MLOAD DUP1 SWAP2 SUB SWAP1 RETURN JUMPDEST PUSH2 0x413 PUSH1 0x4 DUP1 CALLDATASIZE SUB DUP2 ADD SWAP1 PUSH2 0x40E SWAP2 SWAP1 PUSH2 0x2EC9 JUMP JUMPDEST PUSH2 0xF63 JUMP JUMPDEST PUSH1 0x40 MLOAD PUSH2 0x420 SWAP2 SWAP1 PUSH2 0x2F26 JUMP JUMPDEST PUSH1 0x40 MLOAD DUP1 SWAP2 SUB SWAP1 RETURN JUMPDEST PUSH2 0x443 PUSH1 0x4 DUP1 CALLDATASIZE SUB DUP2 ADD SWAP1 PUSH2 0x43E SWAP2 SWAP1 PUSH2 0x2F3F JUMP JUMPDEST PUSH2 0x1263 JUMP JUMPDEST PUSH1 0x40 MLOAD PUSH2 0x450 SWAP2 SWAP1 PUSH2 0x2F26 JUMP JUMPDEST PUSH1 0x40 MLOAD DUP1 SWAP2 SUB SWAP1 RETURN JUMPDEST PUSH2 0x473 PUSH1 0x4 DUP1 CALLDATASIZE SUB DUP2 ADD SWAP1 PUSH2 0x46E SWAP2 SWAP1 PUSH2 0x2C2C JUMP JUMPDEST PUSH2 0x1319 JUMP JUMPDEST PUSH1 0x40 MLOAD PUSH2 0x480 SWAP2 SWAP1 PUSH2 0x2B50 JUMP JUMPDEST PUSH1 0x40 MLOAD DUP1 SWAP2 SUB SWAP1 RETURN JUMPDEST PUSH2 0x491 PUSH2 0x1336 JUMP JUMPDEST PUSH1 0x40 MLOAD PUSH2 0x49E SWAP2 SWAP1 PUSH2 0x2F26 JUMP JUMPDEST PUSH1 0x40 MLOAD DUP1 SWAP2 SUB SWAP1 RETURN JUMPDEST PUSH2 0x4AF PUSH2 0x133C JUMP JUMPDEST PUSH1 0x40 MLOAD PUSH2 0x4BC SWAP2 SWAP1 PUSH2 0x2E11 JUMP JUMPDEST PUSH1 0x40 MLOAD DUP1 SWAP2 SUB SWAP1 RETURN JUMPDEST PUSH2 0x4CD PUSH2 0x1360 JUMP JUMPDEST PUSH1 0x40 MLOAD PUSH2 0x4DA SWAP2 SWAP1 PUSH2 0x2E11 JUMP JUMPDEST PUSH1 0x40 MLOAD DUP1 SWAP2 SUB SWAP1 RETURN JUMPDEST PUSH2 0x4FD PUSH1 0x4 DUP1 CALLDATASIZE SUB DUP2 ADD SWAP1 PUSH2 0x4F8 SWAP2 SWAP1 PUSH2 0x2C2C JUMP JUMPDEST PUSH2 0x1384 JUMP JUMPDEST STOP JUMPDEST PUSH2 0x519 PUSH1 0x4 DUP1 CALLDATASIZE SUB DUP2 ADD SWAP1 PUSH2 0x514 SWAP2 SWAP1 PUSH2 0x2E2A JUMP JUMPDEST PUSH2 0x1417 JUMP JUMPDEST PUSH1 0x40 MLOAD PUSH2 0x526 SWAP2 SWAP1 PUSH2 0x2B50 JUMP JUMPDEST PUSH1 0x40 MLOAD DUP1 SWAP2 SUB SWAP1 RETURN JUMPDEST PUSH2 0x537 PUSH2 0x147A JUMP JUMPDEST PUSH1 0x40 MLOAD PUSH2 0x544 SWAP2 SWAP1 PUSH2 0x2BD9 JUMP JUMPDEST PUSH1 0x40 MLOAD DUP1 SWAP2 SUB SWAP1 RETURN JUMPDEST PUSH2 0x555 PUSH2 0x150A JUMP JUMPDEST PUSH1 0x40 MLOAD PUSH2 0x562 SWAP2 SWAP1 PUSH2 0x2E11 JUMP JUMPDEST PUSH1 0x40 MLOAD DUP1 SWAP2 SUB SWAP1 RETURN JUMPDEST PUSH2 0x585 PUSH1 0x4 DUP1 CALLDATASIZE SUB DUP2 ADD SWAP1 PUSH2 0x580 SWAP2 SWAP1 PUSH2 0x2F94 JUMP JUMPDEST PUSH2 0x1510 JUMP JUMPDEST STOP JUMPDEST PUSH2 0x5A1 PUSH1 0x4 DUP1 CALLDATASIZE SUB DUP2 ADD SWAP1 PUSH2 0x59C SWAP2 SWAP1 PUSH2 0x2FD2 JUMP JUMPDEST PUSH2 0x1526 JUMP JUMPDEST PUSH1 0x40 MLOAD PUSH2 0x5AE SWAP2 SWAP1 PUSH2 0x2B50 JUMP JUMPDEST PUSH1 0x40 MLOAD DUP1 SWAP2 SUB SWAP1 RETURN JUMPDEST PUSH2 0x5D1 PUSH1 0x4 DUP1 CALLDATASIZE SUB DUP2 ADD SWAP1 PUSH2 0x5CC SWAP2 SWAP1 PUSH2 0x3138 JUMP JUMPDEST PUSH2 0x1550 JUMP JUMPDEST STOP JUMPDEST PUSH2 0x5DB PUSH2 0x1575 JUMP JUMPDEST PUSH1 0x40 MLOAD PUSH2 0x5E8 SWAP2 SWAP1 PUSH2 0x326F JUMP JUMPDEST PUSH1 0x40 MLOAD DUP1 SWAP2 SUB SWAP1 RETURN JUMPDEST PUSH2 0x60B PUSH1 0x4 DUP1 CALLDATASIZE SUB DUP2 ADD SWAP1 PUSH2 0x606 SWAP2 SWAP1 PUSH2 0x2C2C JUMP JUMPDEST PUSH2 0x15CB JUMP JUMPDEST PUSH1 0x40 MLOAD PUSH2 0x618 SWAP2 SWAP1 PUSH2 0x2BD9 JUMP JUMPDEST PUSH1 0x40 MLOAD DUP1 SWAP2 SUB SWAP1 RETURN JUMPDEST PUSH2 0x63B PUSH1 0x4 DUP1 CALLDATASIZE SUB DUP2 ADD SWAP1 PUSH2 0x636 SWAP2 SWAP1 PUSH2 0x2E2A JUMP JUMPDEST PUSH2 0x1631 JUMP JUMPDEST STOP JUMPDEST PUSH2 0x657 PUSH1 0x4 DUP1 CALLDATASIZE SUB DUP2 ADD SWAP1 PUSH2 0x652 SWAP2 SWAP1 PUSH2 0x2C2C JUMP JUMPDEST PUSH2 0x1653 JUMP JUMPDEST PUSH1 0x40 MLOAD PUSH2 0x664 SWAP2 SWAP1 PUSH2 0x2F26 JUMP JUMPDEST PUSH1 0x40 MLOAD DUP1 SWAP2 SUB SWAP1 RETURN JUMPDEST PUSH2 0x687 PUSH1 0x4 DUP1 CALLDATASIZE SUB DUP2 ADD SWAP1 PUSH2 0x682 SWAP2 SWAP1 PUSH2 0x328F JUMP JUMPDEST PUSH2 0x1668 JUMP JUMPDEST PUSH1 0x40 MLOAD PUSH2 0x694 SWAP2 SWAP1 PUSH2 0x2B50 JUMP JUMPDEST PUSH1 0x40 MLOAD DUP1 SWAP2 SUB SWAP1 RETURN JUMPDEST PUSH2 0x6B7 PUSH1 0x4 DUP1 CALLDATASIZE SUB DUP2 ADD SWAP1 PUSH2 0x6B2 SWAP2 SWAP1 PUSH2 0x2C2C JUMP JUMPDEST PUSH2 0x16F6 JUMP JUMPDEST PUSH1 0x40 MLOAD PUSH2 0x6C4 SWAP2 SWAP1 PUSH2 0x3384 JUMP JUMPDEST PUSH1 0x40 MLOAD DUP1 SWAP2 SUB SWAP1 RETURN JUMPDEST PUSH2 0x6D5 PUSH2 0x17D6 JUMP JUMPDEST PUSH1 0x40 MLOAD PUSH2 0x6E2 SWAP2 SWAP1 PUSH2 0x2E11 JUMP JUMPDEST PUSH1 0x40 MLOAD DUP1 SWAP2 SUB SWAP1 RETURN JUMPDEST PUSH0 PUSH2 0x6F5 DUP3 PUSH2 0x17FA JUMP JUMPDEST SWAP1 POP SWAP2 SWAP1 POP JUMP JUMPDEST PUSH1 0x60 PUSH1 0x1 DUP1 SLOAD PUSH2 0x70B SWAP1 PUSH2 0x33D1 JUMP JUMPDEST DUP1 PUSH1 0x1F ADD PUSH1 0x20 DUP1 SWAP2 DIV MUL PUSH1 0x20 ADD PUSH1 0x40 MLOAD SWAP1 DUP2 ADD PUSH1 0x40 MSTORE DUP1 SWAP3 SWAP2 SWAP1 DUP2 DUP2 MSTORE PUSH1 0x20 ADD DUP3 DUP1 SLOAD PUSH2 0x737 SWAP1 PUSH2 0x33D1 JUMP JUMPDEST DUP1 ISZERO PUSH2 0x782 JUMPI DUP1 PUSH1 0x1F LT PUSH2 0x759 JUMPI PUSH2 0x100 DUP1 DUP4 SLOAD DIV MUL DUP4 MSTORE SWAP2 PUSH1 0x20 ADD SWAP2 PUSH2 0x782 JUMP JUMPDEST DUP3 ADD SWAP2 SWAP1 PUSH0 MSTORE PUSH1 0x20 PUSH0 KECCAK256 SWAP1 JUMPDEST DUP2 SLOAD DUP2 MSTORE SWAP1 PUSH1 0x1 ADD SWAP1 PUSH1 0x20 ADD DUP1 DUP4 GT PUSH2 0x765 JUMPI DUP3 SWAP1 SUB PUSH1 0x1F AND DUP3 ADD SWAP2 JUMPDEST POP POP POP POP POP SWAP1 POP SWAP1 JUMP JUMPDEST PUSH0 PUSH2 0x796 DUP3 PUSH2 0x18DB JUMP JUMPDEST POP PUSH2 0x7A0 DUP3 PUSH2 0x1961 JUMP JUMPDEST SWAP1 POP SWAP2 SWAP1 POP JUMP JUMPDEST PUSH2 0x7B9 DUP3 DUP3 PUSH2 0x7B4 PUSH2 0x199A JUMP JUMPDEST PUSH2 0x19A1 JUMP JUMPDEST POP POP JUMP JUMPDEST PUSH1 0x60 PUSH0 PUSH32 0x50BB68BEF9670E62A9C3FD58243F7647E87ACB27108EF5A03225F3CD31D27B47 PUSH2 0x7EA DUP2 PUSH2 0x19B3 JUMP JUMPDEST PUSH0 PUSH2 0x7F4 DUP6 PUSH2 0x19C7 JUMP JUMPDEST SWAP1 POP DUP1 PUSH1 0x3 ADD PUSH0 SWAP1 SLOAD SWAP1 PUSH2 0x100 EXP SWAP1 DIV PUSH1 0xFF AND PUSH2 0x848 JUMPI DUP5 PUSH1 0x40 MLOAD PUSH32 0x12A4CE3D00000000000000000000000000000000000000000000000000000000 DUP2 MSTORE PUSH1 0x4 ADD PUSH2 0x83F SWAP2 SWAP1 PUSH2 0x2F26 JUMP JUMPDEST PUSH1 0x40 MLOAD DUP1 SWAP2 SUB SWAP1 REVERT JUMPDEST DUP1 PUSH1 0x2 ADD SLOAD TIMESTAMP LT ISZERO PUSH2 0x899 JUMPI DUP5 DUP2 PUSH1 0x2 ADD SLOAD TIMESTAMP PUSH1 0x40 MLOAD PUSH32 0xC7D4B3FD00000000000000000000000000000000000000000000000000000000 DUP2 MSTORE PUSH1 0x4 ADD PUSH2 0x890 SWAP4 SWAP3 SWAP2 SWAP1 PUSH2 0x3401 JUMP JUMPDEST PUSH1 0x40 MLOAD DUP1 SWAP2 SUB SWAP1 REVERT JUMPDEST PUSH1 0xD PUSH0 DUP7 DUP2 MSTORE PUSH1 0x20 ADD SWAP1 DUP2 MSTORE PUSH1 0x20 ADD PUSH0 KECCAK256 PUSH0 CALLER PUSH20 0xFFFFFFFFFFFFFFFFFFFFFFFFFFFFFFFFFFFFFFFF AND PUSH20 0xFFFFFFFFFFFFFFFFFFFFFFFFFFFFFFFFFFFFFFFF AND DUP2 MSTORE PUSH1 0x20 ADD SWAP1 DUP2 MSTORE PUSH1 0x20 ADD PUSH0 KECCAK256 PUSH0 SWAP1 SLOAD SWAP1 PUSH2 0x100 EXP SWAP1 DIV PUSH1 0xFF AND PUSH2 0x935 JUMPI DUP5 CALLER PUSH1 0x40 MLOAD PUSH32 0x4591C63500000000000000000000000000000000000000000000000000000000 DUP2 MSTORE PUSH1 0x4 ADD PUSH2 0x92C SWAP3 SWAP2 SWAP1 PUSH2 0x3436 JUMP JUMPDEST PUSH1 0x40 MLOAD DUP1 SWAP2 SUB SWAP1 REVERT JUMPDEST DUP1 PUSH0 ADD DUP2 PUSH1 0x2 ADD SLOAD DUP2 DUP1 SLOAD PUSH2 0x949 SWAP1 PUSH2 0x33D1 JUMP JUMPDEST DUP1 PUSH1 0x1F ADD PUSH1 0x20 DUP1 SWAP2 DIV MUL PUSH1 0x20 ADD PUSH1 0x40 MLOAD SWAP1 DUP2 ADD PUSH1 0x40 MSTORE DUP1 SWAP3 SWAP2 SWAP1 DUP2 DUP2 MSTORE PUSH1 0x20 ADD DUP3 DUP1 SLOAD PUSH2 0x975 SWAP1 PUSH2 0x33D1 JUMP JUMPDEST DUP1 ISZERO PUSH2 0x9C0 JUMPI DUP1 PUSH1 0x1F LT PUSH2 0x997 JUMPI PUSH2 0x100 DUP1 DUP4 SLOAD DIV MUL DUP4 MSTORE SWAP2 PUSH1 0x20 ADD SWAP2 PUSH2 0x9C0 JUMP JUMPDEST DUP3 ADD SWAP2 SWAP1 PUSH0 MSTORE PUSH1 0x20 PUSH0 KECCAK256 SWAP1 JUMPDEST DUP2 SLOAD DUP2 MSTORE SWAP1 PUSH1 0x1 ADD SWAP1 PUSH1 0x20 ADD DUP1 DUP4 GT PUSH2 0x9A3 JUMPI DUP3 SWAP1 SUB PUSH1 0x1F AND DUP3 ADD SWAP2 JUMPDEST POP POP POP POP POP SWAP2 POP SWAP4 POP SWAP4 POP POP POP SWAP2 POP SWAP2 JUMP JUMPDEST PUSH0 PUSH20 0xFFFFFFFFFFFFFFFFFFFFFFFFFFFFFFFFFFFFFFFF AND DUP3 PUSH20 0xFFFFFFFFFFFFFFFFFFFFFFFFFFFFFFFFFFFFFFFF AND SUB PUSH2 0xA42 JUMPI PUSH0 PUSH1 0x40 MLOAD PUSH32 0x64A0AE9200000000000000000000000000000000000000000000000000000000 DUP2 MSTORE PUSH1 0x4 ADD PUSH2 0xA39 SWAP2 SWAP1 PUSH2 0x2C96 JUMP JUMPDEST PUSH1 0x40 MLOAD DUP1 SWAP2 SUB SWAP1 REVERT JUMPDEST PUSH0 PUSH2 0xA55 DUP4 DUP4 PUSH2 0xA50 PUSH2 0x199A JUMP JUMPDEST PUSH2 0x1A3F JUMP JUMPDEST SWAP1 POP DUP4 PUSH20 0xFFFFFFFFFFFFFFFFFFFFFFFFFFFFFFFFFFFFFFFF AND DUP2 PUSH20 0xFFFFFFFFFFFFFFFFFFFFFFFFFFFFFFFFFFFFFFFF AND EQ PUSH2 0xACB JUMPI DUP4 DUP3 DUP3 PUSH1 0x40 MLOAD PUSH32 0x64283D7B00000000000000000000000000000000000000000000000000000000 DUP2 MSTORE PUSH1 0x4 ADD PUSH2 0xAC2 SWAP4 SWAP3 SWAP2 SWAP1 PUSH2 0x345D JUMP JUMPDEST PUSH1 0x40 MLOAD DUP1 SWAP2 SUB SWAP1 REVERT JUMPDEST POP POP POP POP JUMP JUMPDEST PUSH0 PUSH0 PUSH0 DUP4 DUP2 MSTORE PUSH1 0x20 ADD SWAP1 DUP2 MSTORE PUSH1 0x20 ADD PUSH0 KECCAK256 PUSH1 0x1 ADD SLOAD SWAP1 POP SWAP2 SWAP1 POP JUMP JUMPDEST PUSH2 0xAF6 DUP3 PUSH2 0xAD1 JUMP JUMPDEST PUSH2 0xAFF DUP2 PUSH2 0x19B3 JUMP JUMPDEST PUSH2 0xB09 DUP4 DUP4 PUSH2 0x1C4A JUMP JUMPDEST POP POP POP POP JUMP JUMPDEST PUSH32 0xA49807205CE4D355092EF5A8A18F56E8913CF4A201FBE287825B095693C21775 PUSH2 0xB39 DUP2 PUSH2 0x19B3 JUMP JUMPDEST PUSH2 0xB41 PUSH2 0x1D33 JUMP JUMPDEST PUSH0 PUSH20 0xFFFFFFFFFFFFFFFFFFFFFFFFFFFFFFFFFFFFFFFF AND DUP4 PUSH20 0xFFFFFFFFFFFFFFFFFFFFFFFFFFFFFFFFFFFFFFFF AND SUB PUSH2 0xBA6 JUMPI PUSH1 0x40 MLOAD PUSH32 0xE6C4247B00000000000000000000000000000000000000000000000000000000 DUP2 MSTORE PUSH1 0x4 ADD PUSH1 0x40 MLOAD DUP1 SWAP2 SUB SWAP1 REVERT JUMPDEST PUSH2 0xBD0 PUSH32 0x50BB68BEF9670E62A9C3FD58243F7647E87ACB27108EF5A03225F3CD31D27B47 DUP5 PUSH2 0x1417 JUMP JUMPDEST PUSH2 0xC11 JUMPI DUP3 PUSH1 0x40 MLOAD PUSH32 0xA105A2A500000000000000000000000000000000000000000000000000000000 DUP2 MSTORE PUSH1 0x4 ADD PUSH2 0xC08 SWAP2 SWAP1 PUSH2 0x2C96 JUMP JUMPDEST PUSH1 0x40 MLOAD DUP1 SWAP2 SUB SWAP1 REVERT JUMPDEST PUSH0 PUSH2 0xC1B DUP4 PUSH2 0x19C7 JUMP JUMPDEST SWAP1 POP DUP1 PUSH1 0x3 ADD PUSH0 SWAP1 SLOAD SWAP1 PUSH2 0x100 EXP SWAP1 DIV PUSH1 0xFF AND PUSH2 0xC6F JUMPI DUP3 PUSH1 0x40 MLOAD PUSH32 0x12A4CE3D00000000000000000000000000000000000000000000000000000000 DUP2 MSTORE PUSH1 0x4 ADD PUSH2 0xC66 SWAP2 SWAP1 PUSH2 0x2F26 JUMP JUMPDEST PUSH1 0x40 MLOAD DUP1 SWAP2 SUB SWAP1 REVERT JUMPDEST PUSH1 0xD PUSH0 DUP5 DUP2 MSTORE PUSH1 0x20 ADD SWAP1 DUP2 MSTORE PUSH1 0x20 ADD PUSH0 KECCAK256 PUSH0 DUP6 PUSH20 0xFFFFFFFFFFFFFFFFFFFFFFFFFFFFFFFFFFFFFFFF AND PUSH20 0xFFFFFFFFFFFFFFFFFFFFFFFFFFFFFFFFFFFFFFFF AND DUP2 MSTORE PUSH1 0x20 ADD SWAP1 DUP2 MSTORE PUSH1 0x20 ADD PUSH0 KECCAK256 PUSH0 SWAP1 SLOAD SWAP1 PUSH2 0x100 EXP SWAP1 DIV PUSH1 0xFF AND ISZERO PUSH2 0xD0C JUMPI DUP3 DUP5 PUSH1 0x40 MLOAD PUSH32 0xF95035B00000000000000000000000000000000000000000000000000000000 DUP2 MSTORE PUSH1 0x4 ADD PUSH2 0xD03 SWAP3 SWAP2 SWAP1 PUSH2 0x3436 JUMP JUMPDEST PUSH1 0x40 MLOAD DUP1 SWAP2 SUB SWAP1 REVERT JUMPDEST PUSH0 PUSH1 0x7 SLOAD SWAP1 POP PUSH1 0x1 DUP2 ADD PUSH1 0x7 DUP2 SWAP1 SSTORE POP PUSH1 0x1 PUSH1 0xD PUSH0 DUP7 DUP2 MSTORE PUSH1 0x20 ADD SWAP1 DUP2 MSTORE PUSH1 0x20 ADD PUSH0 KECCAK256 PUSH0 DUP8 PUSH20 0xFFFFFFFFFFFFFFFFFFFFFFFFFFFFFFFFFFFFFFFF AND PUSH20 0xFFFFFFFFFFFFFFFFFFFFFFFFFFFFFFFFFFFFFFFF AND DUP2 MSTORE PUSH1 0x20 ADD SWAP1 DUP2 MSTORE PUSH1 0x20 ADD PUSH0 KECCAK256 PUSH0 PUSH2 0x100 EXP DUP2 SLOAD DUP2 PUSH1 0xFF MUL NOT AND SWAP1 DUP4 ISZERO ISZERO MUL OR SWAP1 SSTORE POP DUP4 PUSH1 0xC PUSH0 DUP4 DUP2 MSTORE PUSH1 0x20 ADD SWAP1 DUP2 MSTORE PUSH1 0x20 ADD PUSH0 KECCAK256 DUP2 SWAP1 SSTORE POP PUSH2 0xDA0 DUP6 DUP3 PUSH2 0x1D55 JUMP JUMPDEST DUP1 DUP6 PUSH20 0xFFFFFFFFFFFFFFFFFFFFFFFFFFFFFFFFFFFFFFFF AND DUP6 PUSH32 0xC56E8AA8E9F4284830FD4657BC77D60640AF2EC679F2099FAF320EE4202FF422 PUSH1 0x40 MLOAD PUSH1 0x40 MLOAD DUP1 SWAP2 SUB SWAP1 LOG4 POP POP PUSH2 0xDEF PUSH2 0x1D72 JUMP JUMPDEST POP POP POP JUMP JUMPDEST PUSH2 0xDFC PUSH2 0x199A JUMP JUMPDEST PUSH20 0xFFFFFFFFFFFFFFFFFFFFFFFFFFFFFFFFFFFFFFFF AND DUP2 PUSH20 0xFFFFFFFFFFFFFFFFFFFFFFFFFFFFFFFFFFFFFFFF AND EQ PUSH2 0xE60 JUMPI PUSH1 0x40 MLOAD PUSH32 0x6697B23200000000000000000000000000000000000000000000000000000000 DUP2 MSTORE PUSH1 0x4 ADD PUSH1 0x40 MLOAD DUP1 SWAP2 SUB SWAP1 REVERT JUMPDEST PUSH2 0xE6A DUP3 DUP3 PUSH2 0x1D8C JUMP JUMPDEST POP POP POP JUMP JUMPDEST PUSH2 0xE89 DUP4 DUP4 DUP4 PUSH1 0x40 MLOAD DUP1 PUSH1 0x20 ADD PUSH1 0x40 MSTORE DUP1 PUSH0 DUP2 MSTORE POP PUSH2 0x1550 JUMP JUMPDEST POP POP POP JUMP JUMPDEST PUSH32 0x50BB68BEF9670E62A9C3FD58243F7647E87ACB27108EF5A03225F3CD31D27B47 DUP2 JUMP JUMPDEST PUSH32 0xA49807205CE4D355092EF5A8A18F56E8913CF4A201FBE287825B095693C21775 PUSH2 0xEDC DUP2 PUSH2 0x19B3 JUMP JUMPDEST PUSH0 PUSH2 0xEE6 DUP4 PUSH2 0x19C7 JUMP JUMPDEST SWAP1 POP PUSH1 0x1 DUP2 PUSH1 0x1 ADD PUSH0 DUP3 DUP3 SLOAD ADD SWAP3 POP POP DUP2 SWAP1 SSTORE POP CALLER PUSH20 0xFFFFFFFFFFFFFFFFFFFFFFFFFFFFFFFFFFFFFFFF AND DUP4 PUSH32 0x4699BFE4CFDA2B9CE45BA5253E612C6D2C7AFA12D0D9F575A561461FE0D277D9 DUP4 PUSH1 0x1 ADD SLOAD PUSH1 0x40 MLOAD PUSH2 0xF45 SWAP2 SWAP1 PUSH2 0x2F26 JUMP JUMPDEST PUSH1 0x40 MLOAD DUP1 SWAP2 SUB SWAP1 LOG3 POP POP POP JUMP JUMPDEST PUSH0 PUSH2 0xF5C DUP3 PUSH2 0x18DB JUMP JUMPDEST SWAP1 POP SWAP2 SWAP1 POP JUMP JUMPDEST PUSH0 PUSH32 0xA49807205CE4D355092EF5A8A18F56E8913CF4A201FBE287825B095693C21775 PUSH2 0xF8E DUP2 PUSH2 0x19B3 JUMP JUMPDEST PUSH0 DUP6 DUP6 SWAP1 POP SUB PUSH2 0xFCA JUMPI PUSH1 0x40 MLOAD PUSH32 0xD808503F00000000000000000000000000000000000000000000000000000000 DUP2 MSTORE PUSH1 0x4 ADD PUSH1 0x40 MLOAD DUP1 SWAP2 SUB SWAP1 REVERT JUMPDEST TIMESTAMP DUP4 GT PUSH2 0x1003 JUMPI PUSH1 0x40 MLOAD PUSH32 0x4510603600000000000000000000000000000000000000000000000000000000 DUP2 MSTORE PUSH1 0x4 ADD PUSH1 0x40 MLOAD DUP1 SWAP2 SUB SWAP1 REVERT JUMPDEST PREVRANDAO TIMESTAMP CALLER DUP8 DUP8 DUP8 PUSH1 0x8 SLOAD PUSH1 0x40 MLOAD PUSH1 0x20 ADD PUSH2 0x1022 SWAP8 SWAP7 SWAP6 SWAP5 SWAP4 SWAP3 SWAP2 SWAP1 PUSH2 0x3525 JUMP JUMPDEST PUSH1 0x40 MLOAD PUSH1 0x20 DUP2 DUP4 SUB SUB DUP2 MSTORE SWAP1 PUSH1 0x40 MSTORE DUP1 MLOAD SWAP1 PUSH1 0x20 ADD KECCAK256 PUSH0 SHR SWAP2 POP JUMPDEST PUSH1 0xA PUSH0 DUP4 DUP2 MSTORE PUSH1 0x20 ADD SWAP1 DUP2 MSTORE PUSH1 0x20 ADD PUSH0 KECCAK256 PUSH0 SWAP1 SLOAD SWAP1 PUSH2 0x100 EXP SWAP1 DIV PUSH1 0xFF AND ISZERO PUSH2 0x10AE JUMPI PUSH1 0x1 PUSH1 0x8 PUSH0 DUP3 DUP3 SLOAD ADD SWAP3 POP POP DUP2 SWAP1 SSTORE POP PREVRANDAO TIMESTAMP CALLER DUP8 DUP8 DUP8 PUSH1 0x8 SLOAD PUSH1 0x40 MLOAD PUSH1 0x20 ADD PUSH2 0x108F SWAP8 SWAP7 SWAP6 SWAP5 SWAP4 SWAP3 SWAP2 SWAP1 PUSH2 0x3525 JUMP JUMPDEST PUSH1 0x40 MLOAD PUSH1 0x20 DUP2 DUP4 SUB SUB DUP2 MSTORE SWAP1 PUSH1 0x40 MSTORE DUP1 MLOAD SWAP1 PUSH1 0x20 ADD KECCAK256 PUSH0 SHR SWAP2 POP PUSH2 0x103D JUMP JUMPDEST PUSH1 0x1 PUSH1 0x8 PUSH0 DUP3 DUP3 SLOAD ADD SWAP3 POP POP DUP2 SWAP1 SSTORE POP PUSH1 0x40 MLOAD DUP1 PUSH1 0x80 ADD PUSH1 0x40 MSTORE DUP1 DUP7 DUP7 DUP1 DUP1 PUSH1 0x1F ADD PUSH1 0x20 DUP1 SWAP2 DIV MUL PUSH1 0x20 ADD PUSH1 0x40 MLOAD SWAP1 DUP2 ADD PUSH1 0x40 MSTORE DUP1 SWAP4 SWAP3 SWAP2 SWAP1 DUP2 DUP2 MSTORE PUSH1 0x20 ADD DUP4 DUP4 DUP1 DUP3 DUP5 CALLDATACOPY PUSH0 DUP2 DUP5 ADD MSTORE PUSH1 0x1F NOT PUSH1 0x1F DUP3 ADD AND SWAP1 POP DUP1 DUP4 ADD SWAP3 POP POP POP POP POP POP POP DUP2 MSTORE PUSH1 0x20 ADD PUSH1 0x1 DUP2 MSTORE PUSH1 0x20 ADD DUP5 DUP2 MSTORE PUSH1 0x20 ADD PUSH1 0x1 ISZERO ISZERO DUP2 MSTORE POP PUSH1 0x9 PUSH0 DUP5 DUP2 MSTORE PUSH1 0x20 ADD SWAP1 DUP2 MSTORE PUSH1 0x20 ADD PUSH0 KECCAK256 PUSH0 DUP3 ADD MLOAD DUP2 PUSH0 ADD SWAP1 DUP2 PUSH2 0x114A SWAP2 SWAP1 PUSH2 0x3732 JUMP JUMPDEST POP PUSH1 0x20 DUP3 ADD MLOAD DUP2 PUSH1 0x1 ADD SSTORE PUSH1 0x40 DUP3 ADD MLOAD DUP2 PUSH1 0x2 ADD SSTORE PUSH1 0x60 DUP3 ADD MLOAD DUP2 PUSH1 0x3 ADD PUSH0 PUSH2 0x100 EXP DUP2 SLOAD DUP2 PUSH1 0xFF MUL NOT AND SWAP1 DUP4 ISZERO ISZERO MUL OR SWAP1 SSTORE POP SWAP1 POP POP PUSH1 0x1 PUSH1 0xA PUSH0 DUP5 DUP2 MSTORE PUSH1 0x20 ADD SWAP1 DUP2 MSTORE PUSH1 0x20 ADD PUSH0 KECCAK256 PUSH0 PUSH2 0x100 EXP DUP2 SLOAD DUP2 PUSH1 0xFF MUL NOT AND SWAP1 DUP4 ISZERO ISZERO MUL OR SWAP1 SSTORE POP PUSH1 0xB DUP3 SWAP1 DUP1 PUSH1 0x1 DUP2 SLOAD ADD DUP1 DUP3 SSTORE DUP1 SWAP2 POP POP PUSH1 0x1 SWAP1 SUB SWAP1 PUSH0 MSTORE PUSH1 0x20 PUSH0 KECCAK256 ADD PUSH0 SWAP1 SWAP2 SWAP1 SWAP2 SWAP1 SWAP2 POP SSTORE CALLER PUSH20 0xFFFFFFFFFFFFFFFFFFFFFFFFFFFFFFFFFFFFFFFF AND DUP3 PUSH32 0xAFA2AF017B015352D76042EBC01032FCFD6067F8C24E7D01588BDE8229680B70 DUP8 DUP8 DUP8 PUSH1 0x40 MLOAD PUSH2 0x121B SWAP4 SWAP3 SWAP2 SWAP1 PUSH2 0x382D JUMP JUMPDEST PUSH1 0x40 MLOAD DUP1 SWAP2 SUB SWAP1 LOG3 DUP2 PUSH32 0xAB59F8C308501871D48CDABD47088B7DFD085E8F3C41C405E1D5C64613F8D493 DUP5 PUSH1 0x40 MLOAD PUSH2 0x1253 SWAP2 SWAP1 PUSH2 0x2F26 JUMP JUMPDEST PUSH1 0x40 MLOAD DUP1 SWAP2 SUB SWAP1 LOG2 POP SWAP4 SWAP3 POP POP POP JUMP JUMPDEST PUSH0 PUSH0 PUSH20 0xFFFFFFFFFFFFFFFFFFFFFFFFFFFFFFFFFFFFFFFF AND DUP3 PUSH20 0xFFFFFFFFFFFFFFFFFFFFFFFFFFFFFFFFFFFFFFFF AND SUB PUSH2 0x12D4 JUMPI PUSH0 PUSH1 0x40 MLOAD PUSH32 0x89C62B6400000000000000000000000000000000000000000000000000000000 DUP2 MSTORE PUSH1 0x4 ADD PUSH2 0x12CB SWAP2 SWAP1 PUSH2 0x2C96 JUMP JUMPDEST PUSH1 0x40 MLOAD DUP1 SWAP2 SUB SWAP1 REVERT JUMPDEST PUSH1 0x4 PUSH0 DUP4 PUSH20 0xFFFFFFFFFFFFFFFFFFFFFFFFFFFFFFFFFFFFFFFF AND PUSH20 0xFFFFFFFFFFFFFFFFFFFFFFFFFFFFFFFFFFFFFFFF AND DUP2 MSTORE PUSH1 0x20 ADD SWAP1 DUP2 MSTORE PUSH1 0x20 ADD PUSH0 KECCAK256 SLOAD SWAP1 POP SWAP2 SWAP1 POP JUMP JUMPDEST PUSH1 0xA PUSH1 0x20 MSTORE DUP1 PUSH0 MSTORE PUSH1 0x40 PUSH0 KECCAK256 PUSH0 SWAP2 POP SLOAD SWAP1 PUSH2 0x100 EXP SWAP1 DIV PUSH1 0xFF AND DUP2 JUMP JUMPDEST PUSH1 0x7 SLOAD DUP2 JUMP JUMPDEST PUSH32 0xA49807205CE4D355092EF5A8A18F56E8913CF4A201FBE287825B095693C21775 DUP2 JUMP JUMPDEST PUSH32 0xA49807205CE4D355092EF5A8A18F56E8913CF4A201FBE287825B095693C21775 DUP2 JUMP JUMPDEST PUSH32 0xA49807205CE4D355092EF5A8A18F56E8913CF4A201FBE287825B095693C21775 PUSH2 0x13AE DUP2 PUSH2 0x19B3 JUMP JUMPDEST PUSH0 PUSH2 0x13B8 DUP4 PUSH2 0x19C7 JUMP JUMPDEST SWAP1 POP PUSH1 0x1 DUP2 PUSH1 0x3 ADD PUSH0 PUSH2 0x100 EXP DUP2 SLOAD DUP2 PUSH1 0xFF MUL NOT AND SWAP1 DUP4 ISZERO ISZERO MUL OR SWAP1 SSTORE POP DUP3 PUSH32 0xAB59F8C308501871D48CDABD47088B7DFD085E8F3C41C405E1D5C64613F8D493 DUP3 PUSH1 0x2 ADD SLOAD PUSH1 0x40 MLOAD PUSH2 0x140A SWAP2 SWAP1 PUSH2 0x2F26 JUMP JUMPDEST PUSH1 0x40 MLOAD DUP1 SWAP2 SUB SWAP1 LOG2 POP POP POP JUMP JUMPDEST PUSH0 PUSH0 PUSH0 DUP5 DUP2 MSTORE PUSH1 0x20 ADD SWAP1 DUP2 MSTORE PUSH1 0x20 ADD PUSH0 KECCAK256 PUSH0 ADD PUSH0 DUP4 PUSH20 0xFFFFFFFFFFFFFFFFFFFFFFFFFFFFFFFFFFFFFFFF AND PUSH20 0xFFFFFFFFFFFFFFFFFFFFFFFFFFFFFFFFFFFFFFFF AND DUP2 MSTORE PUSH1 0x20 ADD SWAP1 DUP2 MSTORE PUSH1 0x20 ADD PUSH0 KECCAK256 PUSH0 SWAP1 SLOAD SWAP1 PUSH2 0x100 EXP SWAP1 DIV PUSH1 0xFF AND SWAP1 POP SWAP3 SWAP2 POP POP JUMP JUMPDEST PUSH1 0x60 PUSH1 0x2 DUP1 SLOAD PUSH2 0x1489 SWAP1 PUSH2 0x33D1 JUMP JUMPDEST DUP1 PUSH1 0x1F ADD PUSH1 0x20 DUP1 SWAP2 DIV MUL PUSH1 0x20 ADD PUSH1 0x40 MLOAD SWAP1 DUP2 ADD PUSH1 0x40 MSTORE DUP1 SWAP3 SWAP2 SWAP1 DUP2 DUP2 MSTORE PUSH1 0x20 ADD DUP3 DUP1 SLOAD PUSH2 0x14B5 SWAP1 PUSH2 0x33D1 JUMP JUMPDEST DUP1 ISZERO PUSH2 0x1500 JUMPI DUP1 PUSH1 0x1F LT PUSH2 0x14D7 JUMPI PUSH2 0x100 DUP1 DUP4 SLOAD DIV MUL DUP4 MSTORE SWAP2 PUSH1 0x20 ADD SWAP2 PUSH2 0x1500 JUMP JUMPDEST DUP3 ADD SWAP2 SWAP1 PUSH0 MSTORE PUSH1 0x20 PUSH0 KECCAK256 SWAP1 JUMPDEST DUP2 SLOAD DUP2 MSTORE SWAP1 PUSH1 0x1 ADD SWAP1 PUSH1 0x20 ADD DUP1 DUP4 GT PUSH2 0x14E3 JUMPI DUP3 SWAP1 SUB PUSH1 0x1F AND DUP3 ADD SWAP2 JUMPDEST POP POP POP POP POP SWAP1 POP SWAP1 JUMP JUMPDEST PUSH0 PUSH0 SHL DUP2 JUMP JUMPDEST PUSH2 0x1522 PUSH2 0x151B PUSH2 0x199A JUMP JUMPDEST DUP4 DUP4 PUSH2 0x1E75 JUMP JUMPDEST POP POP JUMP JUMPDEST PUSH1 0xD PUSH1 0x20 MSTORE DUP2 PUSH0 MSTORE PUSH1 0x40 PUSH0 KECCAK256 PUSH1 0x20 MSTORE DUP1 PUSH0 MSTORE PUSH1 0x40 PUSH0 KECCAK256 PUSH0 SWAP2 POP SWAP2 POP SWAP1 SLOAD SWAP1 PUSH2 0x100 EXP SWAP1 DIV PUSH1 0xFF AND DUP2 JUMP JUMPDEST PUSH2 0x155B DUP5 DUP5 DUP5 PUSH2 0x9D2 JUMP JUMPDEST PUSH2 0x156F PUSH2 0x1566 PUSH2 0x199A JUMP JUMPDEST DUP6 DUP6 DUP6 DUP6 PUSH2 0x204E JUMP JUMPDEST POP POP POP POP JUMP JUMPDEST PUSH1 0x60 PUSH1 0xB DUP1 SLOAD DUP1 PUSH1 0x20 MUL PUSH1 0x20 ADD PUSH1 0x40 MLOAD SWAP1 DUP2 ADD PUSH1 0x40 MSTORE DUP1 SWAP3 SWAP2 SWAP1 DUP2 DUP2 MSTORE PUSH1 0x20 ADD DUP3 DUP1 SLOAD DUP1 ISZERO PUSH2 0x15C1 JUMPI PUSH1 0x20 MUL DUP3 ADD SWAP2 SWAP1 PUSH0 MSTORE PUSH1 0x20 PUSH0 KECCAK256 SWAP1 JUMPDEST DUP2 SLOAD DUP2 MSTORE PUSH1 0x20 ADD SWAP1 PUSH1 0x1 ADD SWAP1 DUP1 DUP4 GT PUSH2 0x15AD JUMPI JUMPDEST POP POP POP POP POP SWAP1 POP SWAP1 JUMP JUMPDEST PUSH1 0x60 PUSH2 0x15D6 DUP3 PUSH2 0x18DB JUMP JUMPDEST POP PUSH0 PUSH2 0x15E0 PUSH2 0x21FA JUMP JUMPDEST SWAP1 POP PUSH0 DUP2 MLOAD GT PUSH2 0x15FE JUMPI PUSH1 0x40 MLOAD DUP1 PUSH1 0x20 ADD PUSH1 0x40 MSTORE DUP1 PUSH0 DUP2 MSTORE POP PUSH2 0x1629 JUMP JUMPDEST DUP1 PUSH2 0x1608 DUP5 PUSH2 0x2210 JUMP JUMPDEST PUSH1 0x40 MLOAD PUSH1 0x20 ADD PUSH2 0x1619 SWAP3 SWAP2 SWAP1 PUSH2 0x388D JUMP JUMPDEST PUSH1 0x40 MLOAD PUSH1 0x20 DUP2 DUP4 SUB SUB DUP2 MSTORE SWAP1 PUSH1 0x40 MSTORE JUMPDEST SWAP2 POP POP SWAP2 SWAP1 POP JUMP JUMPDEST PUSH2 0x163A DUP3 PUSH2 0xAD1 JUMP JUMPDEST PUSH2 0x1643 DUP2 PUSH2 0x19B3 JUMP JUMPDEST PUSH2 0x164D DUP4 DUP4 PUSH2 0x1D8C JUMP JUMPDEST POP POP POP POP JUMP JUMPDEST PUSH1 0xC PUSH1 0x20 MSTORE DUP1 PUSH0 MSTORE PUSH1 0x40 PUSH0 KECCAK256 PUSH0 SWAP2 POP SWAP1 POP SLOAD DUP2 JUMP JUMPDEST PUSH0 PUSH1 0x6 PUSH0 DUP5 PUSH20 0xFFFFFFFFFFFFFFFFFFFFFFFFFFFFFFFFFFFFFFFF AND PUSH20 0xFFFFFFFFFFFFFFFFFFFFFFFFFFFFFFFFFFFFFFFF AND DUP2 MSTORE PUSH1 0x20 ADD SWAP1 DUP2 MSTORE PUSH1 0x20 ADD PUSH0 KECCAK256 PUSH0 DUP4 PUSH20 0xFFFFFFFFFFFFFFFFFFFFFFFFFFFFFFFFFFFFFFFF AND PUSH20 0xFFFFFFFFFFFFFFFFFFFFFFFFFFFFFFFFFFFFFFFF AND DUP2 MSTORE PUSH1 0x20 ADD SWAP1 DUP2 MSTORE PUSH1 0x20 ADD PUSH0 KECCAK256 PUSH0 SWAP1 SLOAD SWAP1 PUSH2 0x100 EXP SWAP1 DIV PUSH1 0xFF AND SWAP1 POP SWAP3 SWAP2 POP POP JUMP JUMPDEST PUSH2 0x16FE PUSH2 0x2A7E JUMP JUMPDEST PUSH2 0x1707 DUP3 PUSH2 0x19C7 JUMP JUMPDEST PUSH1 0x40 MLOAD DUP1 PUSH1 0x80 ADD PUSH1 0x40 MSTORE SWAP1 DUP2 PUSH0 DUP3 ADD DUP1 SLOAD PUSH2 0x1721 SWAP1 PUSH2 0x33D1 JUMP JUMPDEST DUP1 PUSH1 0x1F ADD PUSH1 0x20 DUP1 SWAP2 DIV MUL PUSH1 0x20 ADD PUSH1 0x40 MLOAD SWAP1 DUP2 ADD PUSH1 0x40 MSTORE DUP1 SWAP3 SWAP2 SWAP1 DUP2 DUP2 MSTORE PUSH1 0x20 ADD DUP3 DUP1 SLOAD PUSH2 0x174D SWAP1 PUSH2 0x33D1 JUMP JUMPDEST DUP1 ISZERO PUSH2 0x1798 JUMPI DUP1 PUSH1 0x1F LT PUSH2 0x176F JUMPI PUSH2 0x100 DUP1 DUP4 SLOAD DIV MUL DUP4 MSTORE SWAP2 PUSH1 0x20 ADD SWAP2 PUSH2 0x1798 JUMP JUMPDEST DUP3 ADD SWAP2 SWAP1 PUSH0 MSTORE PUSH1 0x20 PUSH0 KECCAK256 SWAP1 JUMPDEST DUP2 SLOAD DUP2 MSTORE SWAP1 PUSH1 0x1 ADD SWAP1 PUSH1 0x20 ADD DUP1 DUP4 GT PUSH2 0x177B JUMPI DUP3 SWAP1 SUB PUSH1 0x1F AND DUP3 ADD SWAP2 JUMPDEST POP POP POP POP POP DUP2 MSTORE PUSH1 0x20 ADD PUSH1 0x1 DUP3 ADD SLOAD DUP2 MSTORE PUSH1 0x20 ADD PUSH1 0x2 DUP3 ADD SLOAD DUP2 MSTORE PUSH1 0x20 ADD PUSH1 0x3 DUP3 ADD PUSH0 SWAP1 SLOAD SWAP1 PUSH2 0x100 EXP SWAP1 DIV PUSH1 0xFF AND ISZERO ISZERO ISZERO ISZERO DUP2 MSTORE POP POP SWAP1 POP SWAP2 SWAP1 POP JUMP JUMPDEST PUSH32 0x50BB68BEF9670E62A9C3FD58243F7647E87ACB27108EF5A03225F3CD31D27B47 DUP2 JUMP JUMPDEST PUSH0 PUSH32 0x80AC58CD00000000000000000000000000000000000000000000000000000000 PUSH28 0xFFFFFFFFFFFFFFFFFFFFFFFFFFFFFFFFFFFFFFFFFFFFFFFFFFFFFFFF NOT AND DUP3 PUSH28 0xFFFFFFFFFFFFFFFFFFFFFFFFFFFFFFFFFFFFFFFFFFFFFFFFFFFFFFFF NOT AND EQ DUP1 PUSH2 0x18C4 JUMPI POP PUSH32 0x5B5E139F00000000000000000000000000000000000000000000000000000000 PUSH28 0xFFFFFFFFFFFFFFFFFFFFFFFFFFFFFFFFFFFFFFFFFFFFFFFFFFFFFFFF NOT AND DUP3 PUSH28 0xFFFFFFFFFFFFFFFFFFFFFFFFFFFFFFFFFFFFFFFFFFFFFFFFFFFFFFFF NOT AND EQ JUMPDEST DUP1 PUSH2 0x18D4 JUMPI POP PUSH2 0x18D3 DUP3 PUSH2 0x22DA JUMP JUMPDEST JUMPDEST SWAP1 POP SWAP2 SWAP1 POP JUMP JUMPDEST PUSH0 PUSH0 PUSH2 0x18E6 DUP4 PUSH2 0x2353 JUMP JUMPDEST SWAP1 POP PUSH0 PUSH20 0xFFFFFFFFFFFFFFFFFFFFFFFFFFFFFFFFFFFFFFFF AND DUP2 PUSH20 0xFFFFFFFFFFFFFFFFFFFFFFFFFFFFFFFFFFFFFFFF AND SUB PUSH2 0x1958 JUMPI DUP3 PUSH1 0x40 MLOAD PUSH32 0x7E27328900000000000000000000000000000000000000000000000000000000 DUP2 MSTORE PUSH1 0x4 ADD PUSH2 0x194F SWAP2 SWAP1 PUSH2 0x2F26 JUMP JUMPDEST PUSH1 0x40 MLOAD DUP1 SWAP2 SUB SWAP1 REVERT JUMPDEST DUP1 SWAP2 POP POP SWAP2 SWAP1 POP JUMP JUMPDEST PUSH0 PUSH1 0x5 PUSH0 DUP4 DUP2 MSTORE PUSH1 0x20 ADD SWAP1 DUP2 MSTORE PUSH1 0x20 ADD PUSH0 KECCAK256 PUSH0 SWAP1 SLOAD SWAP1 PUSH2 0x100 EXP SWAP1 DIV PUSH20 0xFFFFFFFFFFFFFFFFFFFFFFFFFFFFFFFFFFFFFFFF AND SWAP1 POP SWAP2 SWAP1 POP JUMP JUMPDEST PUSH0 CALLER SWAP1 POP SWAP1 JUMP JUMPDEST PUSH2 0x19AE DUP4 DUP4 DUP4 PUSH1 0x1 PUSH2 0x238C JUMP JUMPDEST POP POP POP JUMP JUMPDEST PUSH2 0x19C4 DUP2 PUSH2 0x19BF PUSH2 0x199A JUMP JUMPDEST PUSH2 0x254B JUMP JUMPDEST POP JUMP JUMPDEST PUSH0 PUSH1 0xA PUSH0 DUP4 DUP2 MSTORE PUSH1 0x20 ADD SWAP1 DUP2 MSTORE PUSH1 0x20 ADD PUSH0 KECCAK256 PUSH0 SWAP1 SLOAD SWAP1 PUSH2 0x100 EXP SWAP1 DIV PUSH1 0xFF AND PUSH2 0x1A27 JUMPI DUP2 PUSH1 0x40 MLOAD PUSH32 0x7049A7CC00000000000000000000000000000000000000000000000000000000 DUP2 MSTORE PUSH1 0x4 ADD PUSH2 0x1A1E SWAP2 SWAP1 PUSH2 0x2F26 JUMP JUMPDEST PUSH1 0x40 MLOAD DUP1 SWAP2 SUB SWAP1 REVERT JUMPDEST PUSH1 0x9 PUSH0 DUP4 DUP2 MSTORE PUSH1 0x20 ADD SWAP1 DUP2 MSTORE PUSH1 0x20 ADD PUSH0 KECCAK256 SWAP1 POP SWAP2 SWAP1 POP JUMP JUMPDEST PUSH0 PUSH0 PUSH2 0x1A4A DUP5 PUSH2 0x2353 JUMP JUMPDEST SWAP1 POP PUSH0 PUSH20 0xFFFFFFFFFFFFFFFFFFFFFFFFFFFFFFFFFFFFFFFF AND DUP4 PUSH20 0xFFFFFFFFFFFFFFFFFFFFFFFFFFFFFFFFFFFFFFFF AND EQ PUSH2 0x1A8B JUMPI PUSH2 0x1A8A DUP2 DUP5 DUP7 PUSH2 0x259C JUMP JUMPDEST JUMPDEST PUSH0 PUSH20 0xFFFFFFFFFFFFFFFFFFFFFFFFFFFFFFFFFFFFFFFF AND DUP2 PUSH20 0xFFFFFFFFFFFFFFFFFFFFFFFFFFFFFFFFFFFFFFFF AND EQ PUSH2 0x1B16 JUMPI PUSH2 0x1ACA PUSH0 DUP6 PUSH0 PUSH0 PUSH2 0x238C JUMP JUMPDEST PUSH1 0x1 PUSH1 0x4 PUSH0 DUP4 PUSH20 0xFFFFFFFFFFFFFFFFFFFFFFFFFFFFFFFFFFFFFFFF AND PUSH20 0xFFFFFFFFFFFFFFFFFFFFFFFFFFFFFFFFFFFFFFFF AND DUP2 MSTORE PUSH1 0x20 ADD SWAP1 DUP2 MSTORE PUSH1 0x20 ADD PUSH0 KECCAK256 PUSH0 DUP3 DUP3 SLOAD SUB SWAP3 POP POP DUP2 SWAP1 SSTORE POP JUMPDEST PUSH0 PUSH20 0xFFFFFFFFFFFFFFFFFFFFFFFFFFFFFFFFFFFFFFFF AND DUP6 PUSH20 0xFFFFFFFFFFFFFFFFFFFFFFFFFFFFFFFFFFFFFFFF AND EQ PUSH2 0x1B95 JUMPI PUSH1 0x1 PUSH1 0x4 PUSH0 DUP8 PUSH20 0xFFFFFFFFFFFFFFFFFFFFFFFFFFFFFFFFFFFFFFFF AND PUSH20 0xFFFFFFFFFFFFFFFFFFFFFFFFFFFFFFFFFFFFFFFF AND DUP2 MSTORE PUSH1 0x20 ADD SWAP1 DUP2 MSTORE PUSH1 0x20 ADD PUSH0 KECCAK256 PUSH0 DUP3 DUP3 SLOAD ADD SWAP3 POP POP DUP2 SWAP1 SSTORE POP JUMPDEST DUP5 PUSH1 0x3 PUSH0 DUP7 DUP2 MSTORE PUSH1 0x20 ADD SWAP1 DUP2 MSTORE PUSH1 0x20 ADD PUSH0 KECCAK256 PUSH0 PUSH2 0x100 EXP DUP2 SLOAD DUP2 PUSH20 0xFFFFFFFFFFFFFFFFFFFFFFFFFFFFFFFFFFFFFFFF MUL NOT AND SWAP1 DUP4 PUSH20 0xFFFFFFFFFFFFFFFFFFFFFFFFFFFFFFFFFFFFFFFF AND MUL OR SWAP1 SSTORE POP DUP4 DUP6 PUSH20 0xFFFFFFFFFFFFFFFFFFFFFFFFFFFFFFFFFFFFFFFF AND DUP3 PUSH20 0xFFFFFFFFFFFFFFFFFFFFFFFFFFFFFFFFFFFFFFFF AND PUSH32 0xDDF252AD1BE2C89B69C2B068FC378DAA952BA7F163C4A11628F55A4DF523B3EF PUSH1 0x40 MLOAD PUSH1 0x40 MLOAD DUP1 SWAP2 SUB SWAP1 LOG4 DUP1 SWAP2 POP POP SWAP4 SWAP3 POP POP POP JUMP JUMPDEST PUSH0 PUSH2 0x1C55 DUP4 DUP4 PUSH2 0x1417 JUMP JUMPDEST PUSH2 0x1D29 JUMPI PUSH1 0x1 PUSH0 PUSH0 DUP6 DUP2 MSTORE PUSH1 0x20 ADD SWAP1 DUP2 MSTORE PUSH1 0x20 ADD PUSH0 KECCAK256 PUSH0 ADD PUSH0 DUP5 PUSH20 0xFFFFFFFFFFFFFFFFFFFFFFFFFFFFFFFFFFFFFFFF AND PUSH20 0xFFFFFFFFFFFFFFFFFFFFFFFFFFFFFFFFFFFFFFFF AND DUP2 MSTORE PUSH1 0x20 ADD SWAP1 DUP2 MSTORE PUSH1 0x20 ADD PUSH0 KECCAK256 PUSH0 PUSH2 0x100 EXP DUP2 SLOAD DUP2 PUSH1 0xFF MUL NOT AND SWAP1 DUP4 ISZERO ISZERO MUL OR SWAP1 SSTORE POP PUSH2 0x1CC6 PUSH2 0x199A JUMP JUMPDEST PUSH20 0xFFFFFFFFFFFFFFFFFFFFFFFFFFFFFFFFFFFFFFFF AND DUP3 PUSH20 0xFFFFFFFFFFFFFFFFFFFFFFFFFFFFFFFFFFFFFFFF AND DUP5 PUSH32 0x2F8788117E7EFF1D82E926EC794901D17C78024A50270940304540A733656F0D PUSH1 0x40 MLOAD PUSH1 0x40 MLOAD DUP1 SWAP2 SUB SWAP1 LOG4 PUSH1 0x1 SWAP1 POP PUSH2 0x1D2D JUMP JUMPDEST PUSH0 SWAP1 POP JUMPDEST SWAP3 SWAP2 POP POP JUMP JUMPDEST PUSH2 0x1D3B PUSH2 0x265F JUMP JUMPDEST PUSH1 0x2 PUSH2 0x1D4D PUSH2 0x1D48 PUSH2 0x26A0 JUMP JUMPDEST PUSH2 0x26C9 JUMP JUMPDEST PUSH0 ADD DUP2 SWAP1 SSTORE POP JUMP JUMPDEST PUSH2 0x1D6E DUP3 DUP3 PUSH1 0x40 MLOAD DUP1 PUSH1 0x20 ADD PUSH1 0x40 MSTORE DUP1 PUSH0 DUP2 MSTORE POP PUSH2 0x26D2 JUMP JUMPDEST POP POP JUMP JUMPDEST PUSH1 0x1 PUSH2 0x1D84 PUSH2 0x1D7F PUSH2 0x26A0 JUMP JUMPDEST PUSH2 0x26C9 JUMP JUMPDEST PUSH0 ADD DUP2 SWAP1 SSTORE POP JUMP JUMPDEST PUSH0 PUSH2 0x1D97 DUP4 DUP4 PUSH2 0x1417 JUMP JUMPDEST ISZERO PUSH2 0x1E6B JUMPI PUSH0 PUSH0 PUSH0 DUP6 DUP2 MSTORE PUSH1 0x20 ADD SWAP1 DUP2 MSTORE PUSH1 0x20 ADD PUSH0 KECCAK256 PUSH0 ADD PUSH0 DUP5 PUSH20 0xFFFFFFFFFFFFFFFFFFFFFFFFFFFFFFFFFFFFFFFF AND PUSH20 0xFFFFFFFFFFFFFFFFFFFFFFFFFFFFFFFFFFFFFFFF AND DUP2 MSTORE PUSH1 0x20 ADD SWAP1 DUP2 MSTORE PUSH1 0x20 ADD PUSH0 KECCAK256 PUSH0 PUSH2 0x100 EXP DUP2 SLOAD DUP2 PUSH1 0xFF MUL NOT AND SWAP1 DUP4 ISZERO ISZERO MUL OR SWAP1 SSTORE POP PUSH2 0x1E08 PUSH2 0x199A JUMP JUMPDEST PUSH20 0xFFFFFFFFFFFFFFFFFFFFFFFFFFFFFFFFFFFFFFFF AND DUP3 PUSH20 0xFFFFFFFFFFFFFFFFFFFFFFFFFFFFFFFFFFFFFFFF AND DUP5 PUSH32 0xF6391F5C32D9C69D2A47EA670B442974B53935D1EDC7FD64EB21E047A839171B PUSH1 0x40 MLOAD PUSH1 0x40 MLOAD DUP1 SWAP2 SUB SWAP1 LOG4 PUSH1 0x1 SWAP1 POP PUSH2 0x1E6F JUMP JUMPDEST PUSH0 SWAP1 POP JUMPDEST SWAP3 SWAP2 POP POP JUMP JUMPDEST PUSH0 PUSH20 0xFFFFFFFFFFFFFFFFFFFFFFFFFFFFFFFFFFFFFFFF AND DUP4 PUSH20 0xFFFFFFFFFFFFFFFFFFFFFFFFFFFFFFFFFFFFFFFF AND SUB PUSH2 0x1EE5 JUMPI PUSH0 PUSH1 0x40 MLOAD PUSH32 0xA9FBF51F00000000000000000000000000000000000000000000000000000000 DUP2 MSTORE PUSH1 0x4 ADD PUSH2 0x1EDC SWAP2 SWAP1 PUSH2 0x2C96 JUMP JUMPDEST PUSH1 0x40 MLOAD DUP1 SWAP2 SUB SWAP1 REVERT JUMPDEST PUSH0 PUSH20 0xFFFFFFFFFFFFFFFFFFFFFFFFFFFFFFFFFFFFFFFF AND DUP3 PUSH20 0xFFFFFFFFFFFFFFFFFFFFFFFFFFFFFFFFFFFFFFFF AND SUB PUSH2 0x1F55 JUMPI DUP2 PUSH1 0x40 MLOAD PUSH32 0x5B08BA1800000000000000000000000000000000000000000000000000000000 DUP2 MSTORE PUSH1 0x4 ADD PUSH2 0x1F4C SWAP2 SWAP1 PUSH2 0x2C96 JUMP JUMPDEST PUSH1 0x40 MLOAD DUP1 SWAP2 SUB SWAP1 REVERT JUMPDEST DUP1 PUSH1 0x6 PUSH0 DUP6 PUSH20 0xFFFFFFFFFFFFFFFFFFFFFFFFFFFFFFFFFFFFFFFF AND PUSH20 0xFFFFFFFFFFFFFFFFFFFFFFFFFFFFFFFFFFFFFFFF AND DUP2 MSTORE PUSH1 0x20 ADD SWAP1 DUP2 MSTORE PUSH1 0x20 ADD PUSH0 KECCAK256 PUSH0 DUP5 PUSH20 0xFFFFFFFFFFFFFFFFFFFFFFFFFFFFFFFFFFFFFFFF AND PUSH20 0xFFFFFFFFFFFFFFFFFFFFFFFFFFFFFFFFFFFFFFFF AND DUP2 MSTORE PUSH1 0x20 ADD SWAP1 DUP2 MSTORE PUSH1 0x20 ADD PUSH0 KECCAK256 PUSH0 PUSH2 0x100 EXP DUP2 SLOAD DUP2 PUSH1 0xFF MUL NOT AND SWAP1 DUP4 ISZERO ISZERO MUL OR SWAP1 SSTORE POP DUP2 PUSH20 0xFFFFFFFFFFFFFFFFFFFFFFFFFFFFFFFFFFFFFFFF AND DUP4 PUSH20 0xFFFFFFFFFFFFFFFFFFFFFFFFFFFFFFFFFFFFFFFF AND PUSH32 0x17307EAB39AB6107E8899845AD3D59BD9653F200F220920489CA2B5937696C31 DUP4 PUSH1 0x40 MLOAD PUSH2 0x2041 SWAP2 SWAP1 PUSH2 0x2B50 JUMP JUMPDEST PUSH1 0x40 MLOAD DUP1 SWAP2 SUB SWAP1 LOG3 POP POP POP JUMP JUMPDEST PUSH0 DUP4 PUSH20 0xFFFFFFFFFFFFFFFFFFFFFFFFFFFFFFFFFFFFFFFF AND EXTCODESIZE GT ISZERO PUSH2 0x21F3 JUMPI DUP3 PUSH20 0xFFFFFFFFFFFFFFFFFFFFFFFFFFFFFFFFFFFFFFFF AND PUSH4 0x150B7A02 DUP7 DUP7 DUP6 DUP6 PUSH1 0x40 MLOAD DUP6 PUSH4 0xFFFFFFFF AND PUSH1 0xE0 SHL DUP2 MSTORE PUSH1 0x4 ADD PUSH2 0x20AC SWAP5 SWAP4 SWAP3 SWAP2 SWAP1 PUSH2 0x3902 JUMP JUMPDEST PUSH1 0x20 PUSH1 0x40 MLOAD DUP1 DUP4 SUB DUP2 PUSH0 DUP8 GAS CALL SWAP3 POP POP POP DUP1 ISZERO PUSH2 0x20E7 JUMPI POP PUSH1 0x40 MLOAD RETURNDATASIZE PUSH1 0x1F NOT PUSH1 0x1F DUP3 ADD AND DUP3 ADD DUP1 PUSH1 0x40 MSTORE POP DUP2 ADD SWAP1 PUSH2 0x20E4 SWAP2 SWAP1 PUSH2 0x3960 JUMP JUMPDEST PUSH1 0x1 JUMPDEST PUSH2 0x2168 JUMPI RETURNDATASIZE DUP1 PUSH0 DUP2 EQ PUSH2 0x2115 JUMPI PUSH1 0x40 MLOAD SWAP2 POP PUSH1 0x1F NOT PUSH1 0x3F RETURNDATASIZE ADD AND DUP3 ADD PUSH1 0x40 MSTORE RETURNDATASIZE DUP3 MSTORE RETURNDATASIZE PUSH0 PUSH1 0x20 DUP5 ADD RETURNDATACOPY PUSH2 0x211A JUMP JUMPDEST PUSH1 0x60 SWAP2 POP JUMPDEST POP PUSH0 DUP2 MLOAD SUB PUSH2 0x2160 JUMPI DUP4 PUSH1 0x40 MLOAD PUSH32 0x64A0AE9200000000000000000000000000000000000000000000000000000000 DUP2 MSTORE PUSH1 0x4 ADD PUSH2 0x2157 SWAP2 SWAP1 PUSH2 0x2C96 JUMP JUMPDEST PUSH1 0x40 MLOAD DUP1 SWAP2 SUB SWAP1 REVERT JUMPDEST DUP1 MLOAD PUSH1 0x20 DUP3 ADD REVERT JUMPDEST PUSH4 0x150B7A02 PUSH1 0xE0 SHL PUSH28 0xFFFFFFFFFFFFFFFFFFFFFFFFFFFFFFFFFFFFFFFFFFFFFFFFFFFFFFFF NOT AND DUP2 PUSH28 0xFFFFFFFFFFFFFFFFFFFFFFFFFFFFFFFFFFFFFFFFFFFFFFFFFFFFFFFF NOT AND EQ PUSH2 0x21F1 JUMPI DUP4 PUSH1 0x40 MLOAD PUSH32 0x64A0AE9200000000000000000000000000000000000000000000000000000000 DUP2 MSTORE PUSH1 0x4 ADD PUSH2 0x21E8 SWAP2 SWAP1 PUSH2 0x2C96 JUMP JUMPDEST PUSH1 0x40 MLOAD DUP1 SWAP2 SUB SWAP1 REVERT JUMPDEST POP JUMPDEST POP POP POP POP POP JUMP JUMPDEST PUSH1 0x60 PUSH1 0x40 MLOAD DUP1 PUSH1 0x20 ADD PUSH1 0x40 MSTORE DUP1 PUSH0 DUP2 MSTORE POP SWAP1 POP SWAP1 JUMP JUMPDEST PUSH1 0x60 PUSH0 PUSH1 0x1 PUSH2 0x221E DUP5 PUSH2 0x26F5 JUMP JUMPDEST ADD SWAP1 POP PUSH0 DUP2 PUSH8 0xFFFFFFFFFFFFFFFF DUP2 GT ISZERO PUSH2 0x223C JUMPI PUSH2 0x223B PUSH2 0x3014 JUMP JUMPDEST JUMPDEST PUSH1 0x40 MLOAD SWAP1 DUP1 DUP3 MSTORE DUP1 PUSH1 0x1F ADD PUSH1 0x1F NOT AND PUSH1 0x20 ADD DUP3 ADD PUSH1 0x40 MSTORE DUP1 ISZERO PUSH2 0x226E JUMPI DUP2 PUSH1 0x20 ADD PUSH1 0x1 DUP3 MUL DUP1 CALLDATASIZE DUP4 CALLDATACOPY DUP1 DUP3 ADD SWAP2 POP POP SWAP1 POP JUMPDEST POP SWAP1 POP PUSH0 DUP3 PUSH1 0x20 DUP4 ADD ADD SWAP1 POP JUMPDEST PUSH1 0x1 ISZERO PUSH2 0x22CF JUMPI DUP1 DUP1 PUSH1 0x1 SWAP1 SUB SWAP2 POP POP PUSH32 0x3031323334353637383961626364656600000000000000000000000000000000 PUSH1 0xA DUP7 MOD BYTE DUP2 MSTORE8 PUSH1 0xA DUP6 DUP2 PUSH2 0x22C4 JUMPI PUSH2 0x22C3 PUSH2 0x398B JUMP JUMPDEST JUMPDEST DIV SWAP5 POP PUSH0 DUP6 SUB PUSH2 0x227B JUMPI JUMPDEST DUP2 SWAP4 POP POP POP POP SWAP2 SWAP1 POP JUMP JUMPDEST PUSH0 PUSH32 0x7965DB0B00000000000000000000000000000000000000000000000000000000 PUSH28 0xFFFFFFFFFFFFFFFFFFFFFFFFFFFFFFFFFFFFFFFFFFFFFFFFFFFFFFFF NOT AND DUP3 PUSH28 0xFFFFFFFFFFFFFFFFFFFFFFFFFFFFFFFFFFFFFFFFFFFFFFFFFFFFFFFF NOT AND EQ DUP1 PUSH2 0x234C JUMPI POP PUSH2 0x234B DUP3 PUSH2 0x2846 JUMP JUMPDEST JUMPDEST SWAP1 POP SWAP2 SWAP1 POP JUMP JUMPDEST PUSH0 PUSH1 0x3 PUSH0 DUP4 DUP2 MSTORE PUSH1 0x20 ADD SWAP1 DUP2 MSTORE PUSH1 0x20 ADD PUSH0 KECCAK256 PUSH0 SWAP1 SLOAD SWAP1 PUSH2 0x100 EXP SWAP1 DIV PUSH20 0xFFFFFFFFFFFFFFFFFFFFFFFFFFFFFFFFFFFFFFFF AND SWAP1 POP SWAP2 SWAP1 POP JUMP JUMPDEST DUP1 DUP1 PUSH2 0x23C4 JUMPI POP PUSH0 PUSH20 0xFFFFFFFFFFFFFFFFFFFFFFFFFFFFFFFFFFFFFFFF AND DUP3 PUSH20 0xFFFFFFFFFFFFFFFFFFFFFFFFFFFFFFFFFFFFFFFF AND EQ ISZERO JUMPDEST ISZERO PUSH2 0x24F6 JUMPI PUSH0 PUSH2 0x23D3 DUP5 PUSH2 0x18DB JUMP JUMPDEST SWAP1 POP PUSH0 PUSH20 0xFFFFFFFFFFFFFFFFFFFFFFFFFFFFFFFFFFFFFFFF AND DUP4 PUSH20 0xFFFFFFFFFFFFFFFFFFFFFFFFFFFFFFFFFFFFFFFF AND EQ ISZERO DUP1 ISZERO PUSH2 0x243D JUMPI POP DUP3 PUSH20 0xFFFFFFFFFFFFFFFFFFFFFFFFFFFFFFFFFFFFFFFF AND DUP2 PUSH20 0xFFFFFFFFFFFFFFFFFFFFFFFFFFFFFFFFFFFFFFFF AND EQ ISZERO JUMPDEST DUP1 ISZERO PUSH2 0x2450 JUMPI POP PUSH2 0x244E DUP2 DUP5 PUSH2 0x1668 JUMP JUMPDEST ISZERO JUMPDEST ISZERO PUSH2 0x2492 JUMPI DUP3 PUSH1 0x40 MLOAD PUSH32 0xA9FBF51F00000000000000000000000000000000000000000000000000000000 DUP2 MSTORE PUSH1 0x4 ADD PUSH2 0x2489 SWAP2 SWAP1 PUSH2 0x2C96 JUMP JUMPDEST PUSH1 0x40 MLOAD DUP1 SWAP2 SUB SWAP1 REVERT JUMPDEST DUP2 ISZERO PUSH2 0x24F4 JUMPI DUP4 DUP6 PUSH20 0xFFFFFFFFFFFFFFFFFFFFFFFFFFFFFFFFFFFFFFFF AND DUP3 PUSH20 0xFFFFFFFFFFFFFFFFFFFFFFFFFFFFFFFFFFFFFFFF AND PUSH32 0x8C5BE1E5EBEC7D5BD14F71427D1E84F3DD0314C0F7B2291E5B200AC8C7C3B925 PUSH1 0x40 MLOAD PUSH1 0x40 MLOAD DUP1 SWAP2 SUB SWAP1 LOG4 JUMPDEST POP JUMPDEST DUP4 PUSH1 0x5 PUSH0 DUP6 DUP2 MSTORE PUSH1 0x20 ADD SWAP1 DUP2 MSTORE PUSH1 0x20 ADD PUSH0 KECCAK256 PUSH0 PUSH2 0x100 EXP DUP2 SLOAD DUP2 PUSH20 0xFFFFFFFFFFFFFFFFFFFFFFFFFFFFFFFFFFFFFFFF MUL NOT AND SWAP1 DUP4 PUSH20 0xFFFFFFFFFFFFFFFFFFFFFFFFFFFFFFFFFFFFFFFF AND MUL OR SWAP1 SSTORE POP POP POP POP POP JUMP JUMPDEST PUSH2 0x2555 DUP3 DUP3 PUSH2 0x1417 JUMP JUMPDEST PUSH2 0x2598 JUMPI DUP1 DUP3 PUSH1 0x40 MLOAD PUSH32 0xE2517D3F00000000000000000000000000000000000000000000000000000000 DUP2 MSTORE PUSH1 0x4 ADD PUSH2 0x258F SWAP3 SWAP2 SWAP1 PUSH2 0x39B8 JUMP JUMPDEST PUSH1 0x40 MLOAD DUP1 SWAP2 SUB SWAP1 REVERT JUMPDEST POP POP JUMP JUMPDEST PUSH2 0x25A7 DUP4 DUP4 DUP4 PUSH2 0x28AF JUMP JUMPDEST PUSH2 0x265A JUMPI PUSH0 PUSH20 0xFFFFFFFFFFFFFFFFFFFFFFFFFFFFFFFFFFFFFFFF AND DUP4 PUSH20 0xFFFFFFFFFFFFFFFFFFFFFFFFFFFFFFFFFFFFFFFF AND SUB PUSH2 0x261B JUMPI DUP1 PUSH1 0x40 MLOAD PUSH32 0x7E27328900000000000000000000000000000000000000000000000000000000 DUP2 MSTORE PUSH1 0x4 ADD PUSH2 0x2612 SWAP2 SWAP1 PUSH2 0x2F26 JUMP JUMPDEST PUSH1 0x40 MLOAD DUP1 SWAP2 SUB SWAP1 REVERT JUMPDEST DUP2 DUP2 PUSH1 0x40 MLOAD PUSH32 0x177E802F00000000000000000000000000000000000000000000000000000000 DUP2 MSTORE PUSH1 0x4 ADD PUSH2 0x2651 SWAP3 SWAP2 SWAP1 PUSH2 0x39DF JUMP JUMPDEST PUSH1 0x40 MLOAD DUP1 SWAP2 SUB SWAP1 REVERT JUMPDEST POP POP POP JUMP JUMPDEST PUSH2 0x2667 PUSH2 0x296F JUMP JUMPDEST ISZERO PUSH2 0x269E JUMPI PUSH1 0x40 MLOAD PUSH32 0x3EE5AEB500000000000000000000000000000000000000000000000000000000 DUP2 MSTORE PUSH1 0x4 ADD PUSH1 0x40 MLOAD DUP1 SWAP2 SUB SWAP1 REVERT JUMPDEST JUMP JUMPDEST PUSH0 PUSH32 0x9B779B17422D0DF92223018B32B4D1FA46E071723D6817E2486D003BECC55F00 PUSH0 SHL SWAP1 POP SWAP1 JUMP JUMPDEST PUSH0 DUP2 SWAP1 POP SWAP2 SWAP1 POP JUMP JUMPDEST PUSH2 0x26DC DUP4 DUP4 PUSH2 0x298B JUMP JUMPDEST PUSH2 0x26F0 PUSH2 0x26E7 PUSH2 0x199A JUMP JUMPDEST PUSH0 DUP6 DUP6 DUP6 PUSH2 0x204E JUMP JUMPDEST POP POP POP JUMP JUMPDEST PUSH0 PUSH0 PUSH0 SWAP1 POP PUSH27 0x184F03E93FF9F4DAA797ED6E38ED64BF6A1F010000000000000000 DUP4 LT PUSH2 0x2751 JUMPI PUSH27 0x184F03E93FF9F4DAA797ED6E38ED64BF6A1F010000000000000000 DUP4 DUP2 PUSH2 0x2747 JUMPI PUSH2 0x2746 PUSH2 0x398B JUMP JUMPDEST JUMPDEST DIV SWAP3 POP PUSH1 0x40 DUP2 ADD SWAP1 POP JUMPDEST PUSH14 0x4EE2D6D415B85ACEF8100000000 DUP4 LT PUSH2 0x278E JUMPI PUSH14 0x4EE2D6D415B85ACEF8100000000 DUP4 DUP2 PUSH2 0x2784 JUMPI PUSH2 0x2783 PUSH2 0x398B JUMP JUMPDEST JUMPDEST DIV SWAP3 POP PUSH1 0x20 DUP2 ADD SWAP1 POP JUMPDEST PUSH7 0x2386F26FC10000 DUP4 LT PUSH2 0x27BD JUMPI PUSH7 0x2386F26FC10000 DUP4 DUP2 PUSH2 0x27B3 JUMPI PUSH2 0x27B2 PUSH2 0x398B JUMP JUMPDEST JUMPDEST DIV SWAP3 POP PUSH1 0x10 DUP2 ADD SWAP1 POP JUMPDEST PUSH4 0x5F5E100 DUP4 LT PUSH2 0x27E6 JUMPI PUSH4 0x5F5E100 DUP4 DUP2 PUSH2 0x27DC JUMPI PUSH2 0x27DB PUSH2 0x398B JUMP JUMPDEST JUMPDEST DIV SWAP3 POP PUSH1 0x8 DUP2 ADD SWAP1 POP JUMPDEST PUSH2 0x2710 DUP4 LT PUSH2 0x280B JUMPI PUSH2 0x2710 DUP4 DUP2 PUSH2 0x2801 JUMPI PUSH2 0x2800 PUSH2 0x398B JUMP JUMPDEST JUMPDEST DIV SWAP3 POP PUSH1 0x4 DUP2 ADD SWAP1 POP JUMPDEST PUSH1 0x64 DUP4 LT PUSH2 0x282E JUMPI PUSH1 0x64 DUP4 DUP2 PUSH2 0x2824 JUMPI PUSH2 0x2823 PUSH2 0x398B JUMP JUMPDEST JUMPDEST DIV SWAP3 POP PUSH1 0x2 DUP2 ADD SWAP1 POP JUMPDEST PUSH1 0xA DUP4 LT PUSH2 0x283D JUMPI PUSH1 0x1 DUP2 ADD SWAP1 POP JUMPDEST DUP1 SWAP2 POP POP SWAP2 SWAP1 POP JUMP JUMPDEST PUSH0 PUSH32 0x1FFC9A700000000000000000000000000000000000000000000000000000000 PUSH28 0xFFFFFFFFFFFFFFFFFFFFFFFFFFFFFFFFFFFFFFFFFFFFFFFFFFFFFFFF NOT AND DUP3 PUSH28 0xFFFFFFFFFFFFFFFFFFFFFFFFFFFFFFFFFFFFFFFFFFFFFFFFFFFFFFFF NOT AND EQ SWAP1 POP SWAP2 SWAP1 POP JUMP JUMPDEST PUSH0 PUSH0 PUSH20 0xFFFFFFFFFFFFFFFFFFFFFFFFFFFFFFFFFFFFFFFF AND DUP4 PUSH20 0xFFFFFFFFFFFFFFFFFFFFFFFFFFFFFFFFFFFFFFFF AND EQ ISZERO DUP1 ISZERO PUSH2 0x2966 JUMPI POP DUP3 PUSH20 0xFFFFFFFFFFFFFFFFFFFFFFFFFFFFFFFFFFFFFFFF AND DUP5 PUSH20 0xFFFFFFFFFFFFFFFFFFFFFFFFFFFFFFFFFFFFFFFF AND EQ DUP1 PUSH2 0x2927 JUMPI POP PUSH2 0x2926 DUP5 DUP5 PUSH2 0x1668 JUMP JUMPDEST JUMPDEST DUP1 PUSH2 0x2965 JUMPI POP DUP3 PUSH20 0xFFFFFFFFFFFFFFFFFFFFFFFFFFFFFFFFFFFFFFFF AND PUSH2 0x294D DUP4 PUSH2 0x1961 JUMP JUMPDEST PUSH20 0xFFFFFFFFFFFFFFFFFFFFFFFFFFFFFFFFFFFFFFFF AND EQ JUMPDEST JUMPDEST SWAP1 POP SWAP4 SWAP3 POP POP POP JUMP JUMPDEST PUSH0 PUSH1 0x2 PUSH2 0x2982 PUSH2 0x297D PUSH2 0x26A0 JUMP JUMPDEST PUSH2 0x26C9 JUMP JUMPDEST PUSH0 ADD SLOAD EQ SWAP1 POP SWAP1 JUMP JUMPDEST PUSH0 PUSH20 0xFFFFFFFFFFFFFFFFFFFFFFFFFFFFFFFFFFFFFFFF AND DUP3 PUSH20 0xFFFFFFFFFFFFFFFFFFFFFFFFFFFFFFFFFFFFFFFF AND SUB PUSH2 0x29FB JUMPI PUSH0 PUSH1 0x40 MLOAD PUSH32 0x64A0AE9200000000000000000000000000000000000000000000000000000000 DUP2 MSTORE PUSH1 0x4 ADD PUSH2 0x29F2 SWAP2 SWAP1 PUSH2 0x2C96 JUMP JUMPDEST PUSH1 0x40 MLOAD DUP1 SWAP2 SUB SWAP1 REVERT JUMPDEST PUSH0 PUSH2 0x2A07 DUP4 DUP4 PUSH0 PUSH2 0x1A3F JUMP JUMPDEST SWAP1 POP PUSH0 PUSH20 0xFFFFFFFFFFFFFFFFFFFFFFFFFFFFFFFFFFFFFFFF AND DUP2 PUSH20 0xFFFFFFFFFFFFFFFFFFFFFFFFFFFFFFFFFFFFFFFF AND EQ PUSH2 0x2A79 JUMPI PUSH0 PUSH1 0x40 MLOAD PUSH32 0x73C6AC6E00000000000000000000000000000000000000000000000000000000 DUP2 MSTORE PUSH1 0x4 ADD PUSH2 0x2A70 SWAP2 SWAP1 PUSH2 0x2C96 JUMP JUMPDEST PUSH1 0x40 MLOAD DUP1 SWAP2 SUB SWAP1 REVERT JUMPDEST POP POP POP JUMP JUMPDEST PUSH1 0x40 MLOAD DUP1 PUSH1 0x80 ADD PUSH1 0x40 MSTORE DUP1 PUSH1 0x60 DUP2 MSTORE PUSH1 0x20 ADD PUSH0 DUP2 MSTORE PUSH1 0x20 ADD PUSH0 DUP2 MSTORE PUSH1 0x20 ADD PUSH0 ISZERO ISZERO DUP2 MSTORE POP SWAP1 JUMP JUMPDEST PUSH0 PUSH1 0x40 MLOAD SWAP1 POP SWAP1 JUMP JUMPDEST PUSH0 PUSH0 REVERT JUMPDEST PUSH0 PUSH0 REVERT JUMPDEST PUSH0 PUSH32 0xFFFFFFFF00000000000000000000000000000000000000000000000000000000 DUP3 AND SWAP1 POP SWAP2 SWAP1 POP JUMP JUMPDEST PUSH2 0x2AEA DUP2 PUSH2 0x2AB6 JUMP JUMPDEST DUP2 EQ PUSH2 0x2AF4 JUMPI PUSH0 PUSH0 REVERT JUMPDEST POP JUMP JUMPDEST PUSH0 DUP2 CALLDATALOAD SWAP1 POP PUSH2 0x2B05 DUP2 PUSH2 0x2AE1 JUMP JUMPDEST SWAP3 SWAP2 POP POP JUMP JUMPDEST PUSH0 PUSH1 0x20 DUP3 DUP5 SUB SLT ISZERO PUSH2 0x2B20 JUMPI PUSH2 0x2B1F PUSH2 0x2AAE JUMP JUMPDEST JUMPDEST PUSH0 PUSH2 0x2B2D DUP5 DUP3 DUP6 ADD PUSH2 0x2AF7 JUMP JUMPDEST SWAP2 POP POP SWAP3 SWAP2 POP POP JUMP JUMPDEST PUSH0 DUP2 ISZERO ISZERO SWAP1 POP SWAP2 SWAP1 POP JUMP JUMPDEST PUSH2 0x2B4A DUP2 PUSH2 0x2B36 JUMP JUMPDEST DUP3 MSTORE POP POP JUMP JUMPDEST PUSH0 PUSH1 0x20 DUP3 ADD SWAP1 POP PUSH2 0x2B63 PUSH0 DUP4 ADD DUP5 PUSH2 0x2B41 JUMP JUMPDEST SWAP3 SWAP2 POP POP JUMP JUMPDEST PUSH0 DUP2 MLOAD SWAP1 POP SWAP2 SWAP1 POP JUMP JUMPDEST PUSH0 DUP3 DUP3 MSTORE PUSH1 0x20 DUP3 ADD SWAP1 POP SWAP3 SWAP2 POP POP JUMP JUMPDEST DUP3 DUP2 DUP4 MCOPY PUSH0 DUP4 DUP4 ADD MSTORE POP POP POP JUMP JUMPDEST PUSH0 PUSH1 0x1F NOT PUSH1 0x1F DUP4 ADD AND SWAP1 POP SWAP2 SWAP1 POP JUMP JUMPDEST PUSH0 PUSH2 0x2BAB DUP3 PUSH2 0x2B69 JUMP JUMPDEST PUSH2 0x2BB5 DUP2 DUP6 PUSH2 0x2B73 JUMP JUMPDEST SWAP4 POP PUSH2 0x2BC5 DUP2 DUP6 PUSH1 0x20 DUP7 ADD PUSH2 0x2B83 JUMP JUMPDEST PUSH2 0x2BCE DUP2 PUSH2 0x2B91 JUMP JUMPDEST DUP5 ADD SWAP2 POP POP SWAP3 SWAP2 POP POP JUMP JUMPDEST PUSH0 PUSH1 0x20 DUP3 ADD SWAP1 POP DUP2 DUP2 SUB PUSH0 DUP4 ADD MSTORE PUSH2 0x2BF1 DUP2 DUP5 PUSH2 0x2BA1 JUMP JUMPDEST SWAP1 POP SWAP3 SWAP2 POP POP JUMP JUMPDEST PUSH0 DUP2 SWAP1 POP SWAP2 SWAP1 POP JUMP JUMPDEST PUSH2 0x2C0B DUP2 PUSH2 0x2BF9 JUMP JUMPDEST DUP2 EQ PUSH2 0x2C15 JUMPI PUSH0 PUSH0 REVERT JUMPDEST POP JUMP JUMPDEST PUSH0 DUP2 CALLDATALOAD SWAP1 POP PUSH2 0x2C26 DUP2 PUSH2 0x2C02 JUMP JUMPDEST SWAP3 SWAP2 POP POP JUMP JUMPDEST PUSH0 PUSH1 0x20 DUP3 DUP5 SUB SLT ISZERO PUSH2 0x2C41 JUMPI PUSH2 0x2C40 PUSH2 0x2AAE JUMP JUMPDEST JUMPDEST PUSH0 PUSH2 0x2C4E DUP5 DUP3 DUP6 ADD PUSH2 0x2C18 JUMP JUMPDEST SWAP2 POP POP SWAP3 SWAP2 POP POP JUMP JUMPDEST PUSH0 PUSH20 0xFFFFFFFFFFFFFFFFFFFFFFFFFFFFFFFFFFFFFFFF DUP3 AND SWAP1 POP SWAP2 SWAP1 POP JUMP JUMPDEST PUSH0 PUSH2 0x2C80 DUP3 PUSH2 0x2C57 JUMP JUMPDEST SWAP1 POP SWAP2 SWAP1 POP JUMP JUMPDEST PUSH2 0x2C90 DUP2 PUSH2 0x2C76 JUMP JUMPDEST DUP3 MSTORE POP POP JUMP JUMPDEST PUSH0 PUSH1 0x20 DUP3 ADD SWAP1 POP PUSH2 0x2CA9 PUSH0 DUP4 ADD DUP5 PUSH2 0x2C87 JUMP JUMPDEST SWAP3 SWAP2 POP POP JUMP JUMPDEST PUSH2 0x2CB8 DUP2 PUSH2 0x2C76 JUMP JUMPDEST DUP2 EQ PUSH2 0x2CC2 JUMPI PUSH0 PUSH0 REVERT JUMPDEST POP JUMP JUMPDEST PUSH0 DUP2 CALLDATALOAD SWAP1 POP PUSH2 0x2CD3 DUP2 PUSH2 0x2CAF JUMP JUMPDEST SWAP3 SWAP2 POP POP JUMP JUMPDEST PUSH0 PUSH0 PUSH1 0x40 DUP4 DUP6 SUB SLT ISZERO PUSH2 0x2CEF JUMPI PUSH2 0x2CEE PUSH2 0x2AAE JUMP JUMPDEST JUMPDEST PUSH0 PUSH2 0x2CFC DUP6 DUP3 DUP7 ADD PUSH2 0x2CC5 JUMP JUMPDEST SWAP3 POP POP PUSH1 0x20 PUSH2 0x2D0D DUP6 DUP3 DUP7 ADD PUSH2 0x2C18 JUMP JUMPDEST SWAP2 POP POP SWAP3 POP SWAP3 SWAP1 POP JUMP JUMPDEST PUSH2 0x2D20 DUP2 PUSH2 0x2BF9 JUMP JUMPDEST DUP3 MSTORE POP POP JUMP JUMPDEST PUSH0 PUSH1 0x40 DUP3 ADD SWAP1 POP DUP2 DUP2 SUB PUSH0 DUP4 ADD MSTORE PUSH2 0x2D3E DUP2 DUP6 PUSH2 0x2BA1 JUMP JUMPDEST SWAP1 POP PUSH2 0x2D4D PUSH1 0x20 DUP4 ADD DUP5 PUSH2 0x2D17 JUMP JUMPDEST SWAP4 SWAP3 POP POP POP JUMP JUMPDEST PUSH0 PUSH0 PUSH0 PUSH1 0x60 DUP5 DUP7 SUB SLT ISZERO PUSH2 0x2D6B JUMPI PUSH2 0x2D6A PUSH2 0x2AAE JUMP JUMPDEST JUMPDEST PUSH0 PUSH2 0x2D78 DUP7 DUP3 DUP8 ADD PUSH2 0x2CC5 JUMP JUMPDEST SWAP4 POP POP PUSH1 0x20 PUSH2 0x2D89 DUP7 DUP3 DUP8 ADD PUSH2 0x2CC5 JUMP JUMPDEST SWAP3 POP POP PUSH1 0x40 PUSH2 0x2D9A DUP7 DUP3 DUP8 ADD PUSH2 0x2C18 JUMP JUMPDEST SWAP2 POP POP SWAP3 POP SWAP3 POP SWAP3 JUMP JUMPDEST PUSH0 DUP2 SWAP1 POP SWAP2 SWAP1 POP JUMP JUMPDEST PUSH2 0x2DB6 DUP2 PUSH2 0x2DA4 JUMP JUMPDEST DUP2 EQ PUSH2 0x2DC0 JUMPI PUSH0 PUSH0 REVERT JUMPDEST POP JUMP JUMPDEST PUSH0 DUP2 CALLDATALOAD SWAP1 POP PUSH2 0x2DD1 DUP2 PUSH2 0x2DAD JUMP JUMPDEST SWAP3 SWAP2 POP POP JUMP JUMPDEST PUSH0 PUSH1 0x20 DUP3 DUP5 SUB SLT ISZERO PUSH2 0x2DEC JUMPI PUSH2 0x2DEB PUSH2 0x2AAE JUMP JUMPDEST JUMPDEST PUSH0 PUSH2 0x2DF9 DUP5 DUP3 DUP6 ADD PUSH2 0x2DC3 JUMP JUMPDEST SWAP2 POP POP SWAP3 SWAP2 POP POP JUMP JUMPDEST PUSH2 0x2E0B DUP2 PUSH2 0x2DA4 JUMP JUMPDEST DUP3 MSTORE POP POP JUMP JUMPDEST PUSH0 PUSH1 0x20 DUP3 ADD SWAP1 POP PUSH2 0x2E24 PUSH0 DUP4 ADD DUP5 PUSH2 0x2E02 JUMP JUMPDEST SWAP3 SWAP2 POP POP JUMP JUMPDEST PUSH0 PUSH0 PUSH1 0x40 DUP4 DUP6 SUB SLT ISZERO PUSH2 0x2E40 JUMPI PUSH2 0x2E3F PUSH2 0x2AAE JUMP JUMPDEST JUMPDEST PUSH0 PUSH2 0x2E4D DUP6 DUP3 DUP7 ADD PUSH2 0x2DC3 JUMP JUMPDEST SWAP3 POP POP PUSH1 0x20 PUSH2 0x2E5E DUP6 DUP3 DUP7 ADD PUSH2 0x2CC5 JUMP JUMPDEST SWAP2 POP POP SWAP3 POP SWAP3 SWAP1 POP JUMP JUMPDEST PUSH0 PUSH0 REVERT JUMPDEST PUSH0 PUSH0 REVERT JUMPDEST PUSH0 PUSH0 REVERT JUMPDEST PUSH0 PUSH0 DUP4 PUSH1 0x1F DUP5 ADD SLT PUSH2 0x2E89 JUMPI PUSH2 0x2E88 PUSH2 0x2E68 JUMP JUMPDEST JUMPDEST DUP3 CALLDATALOAD SWAP1 POP PUSH8 0xFFFFFFFFFFFFFFFF DUP2 GT ISZERO PUSH2 0x2EA6 JUMPI PUSH2 0x2EA5 PUSH2 0x2E6C JUMP JUMPDEST JUMPDEST PUSH1 0x20 DUP4 ADD SWAP2 POP DUP4 PUSH1 0x1 DUP3 MUL DUP4 ADD GT ISZERO PUSH2 0x2EC2 JUMPI PUSH2 0x2EC1 PUSH2 0x2E70 JUMP JUMPDEST JUMPDEST SWAP3 POP SWAP3 SWAP1 POP JUMP JUMPDEST PUSH0 PUSH0 PUSH0 PUSH1 0x40 DUP5 DUP7 SUB SLT ISZERO PUSH2 0x2EE0 JUMPI PUSH2 0x2EDF PUSH2 0x2AAE JUMP JUMPDEST JUMPDEST PUSH0 DUP5 ADD CALLDATALOAD PUSH8 0xFFFFFFFFFFFFFFFF DUP2 GT ISZERO PUSH2 0x2EFD JUMPI PUSH2 0x2EFC PUSH2 0x2AB2 JUMP JUMPDEST JUMPDEST PUSH2 0x2F09 DUP7 DUP3 DUP8 ADD PUSH2 0x2E74 JUMP JUMPDEST SWAP4 POP SWAP4 POP POP PUSH1 0x20 PUSH2 0x2F1C DUP7 DUP3 DUP8 ADD PUSH2 0x2C18 JUMP JUMPDEST SWAP2 POP POP SWAP3 POP SWAP3 POP SWAP3 JUMP JUMPDEST PUSH0 PUSH1 0x20 DUP3 ADD SWAP1 POP PUSH2 0x2F39 PUSH0 DUP4 ADD DUP5 PUSH2 0x2D17 JUMP JUMPDEST SWAP3 SWAP2 POP POP JUMP JUMPDEST PUSH0 PUSH1 0x20 DUP3 DUP5 SUB SLT ISZERO PUSH2 0x2F54 JUMPI PUSH2 0x2F53 PUSH2 0x2AAE JUMP JUMPDEST JUMPDEST PUSH0 PUSH2 0x2F61 DUP5 DUP3 DUP6 ADD PUSH2 0x2CC5 JUMP JUMPDEST SWAP2 POP POP SWAP3 SWAP2 POP POP JUMP JUMPDEST PUSH2 0x2F73 DUP2 PUSH2 0x2B36 JUMP JUMPDEST DUP2 EQ PUSH2 0x2F7D JUMPI PUSH0 PUSH0 REVERT JUMPDEST POP JUMP JUMPDEST PUSH0 DUP2 CALLDATALOAD SWAP1 POP PUSH2 0x2F8E DUP2 PUSH2 0x2F6A JUMP JUMPDEST SWAP3 SWAP2 POP POP JUMP JUMPDEST PUSH0 PUSH0 PUSH1 0x40 DUP4 DUP6 SUB SLT ISZERO PUSH2 0x2FAA JUMPI PUSH2 0x2FA9 PUSH2 0x2AAE JUMP JUMPDEST JUMPDEST PUSH0 PUSH2 0x2FB7 DUP6 DUP3 DUP7 ADD PUSH2 0x2CC5 JUMP JUMPDEST SWAP3 POP POP PUSH1 0x20 PUSH2 0x2FC8 DUP6 DUP3 DUP7 ADD PUSH2 0x2F80 JUMP JUMPDEST SWAP2 POP POP SWAP3 POP SWAP3 SWAP1 POP JUMP JUMPDEST PUSH0 PUSH0 PUSH1 0x40 DUP4 DUP6 SUB SLT ISZERO PUSH2 0x2FE8 JUMPI PUSH2 0x2FE7 PUSH2 0x2AAE JUMP JUMPDEST JUMPDEST PUSH0 PUSH2 0x2FF5 DUP6 DUP3 DUP7 ADD PUSH2 0x2C18 JUMP JUMPDEST SWAP3 POP POP PUSH1 0x20 PUSH2 0x3006 DUP6 DUP3 DUP7 ADD PUSH2 0x2CC5 JUMP JUMPDEST SWAP2 POP POP SWAP3 POP SWAP3 SWAP1 POP JUMP JUMPDEST PUSH0 PUSH0 REVERT JUMPDEST PUSH32 0x4E487B7100000000000000000000000000000000000000000000000000000000 PUSH0 MSTORE PUSH1 0x41 PUSH1 0x4 MSTORE PUSH1 0x24 PUSH0 REVERT JUMPDEST PUSH2 0x304A DUP3 PUSH2 0x2B91 JUMP JUMPDEST DUP2 ADD DUP2 DUP2 LT PUSH8 0xFFFFFFFFFFFFFFFF DUP3 GT OR ISZERO PUSH2 0x3069 JUMPI PUSH2 0x3068 PUSH2 0x3014 JUMP JUMPDEST JUMPDEST DUP1 PUSH1 0x40 MSTORE POP POP POP JUMP JUMPDEST PUSH0 PUSH2 0x307B PUSH2 0x2AA5 JUMP JUMPDEST SWAP1 POP PUSH2 0x3087 DUP3 DUP3 PUSH2 0x3041 JUMP JUMPDEST SWAP2 SWAP1 POP JUMP JUMPDEST PUSH0 PUSH8 0xFFFFFFFFFFFFFFFF DUP3 GT ISZERO PUSH2 0x30A6 JUMPI PUSH2 0x30A5 PUSH2 0x3014 JUMP JUMPDEST JUMPDEST PUSH2 0x30AF DUP3 PUSH2 0x2B91 JUMP JUMPDEST SWAP1 POP PUSH1 0x20 DUP2 ADD SWAP1 POP SWAP2 SWAP1 POP JUMP JUMPDEST DUP3 DUP2 DUP4 CALLDATACOPY PUSH0 DUP4 DUP4 ADD MSTORE POP POP POP JUMP JUMPDEST PUSH0 PUSH2 0x30DC PUSH2 0x30D7 DUP5 PUSH2 0x308C JUMP JUMPDEST PUSH2 0x3072 JUMP JUMPDEST SWAP1 POP DUP3 DUP2 MSTORE PUSH1 0x20 DUP2 ADD DUP5 DUP5 DUP5 ADD GT ISZERO PUSH2 0x30F8 JUMPI PUSH2 0x30F7 PUSH2 0x3010 JUMP JUMPDEST JUMPDEST PUSH2 0x3103 DUP5 DUP3 DUP6 PUSH2 0x30BC JUMP JUMPDEST POP SWAP4 SWAP3 POP POP POP JUMP JUMPDEST PUSH0 DUP3 PUSH1 0x1F DUP4 ADD SLT PUSH2 0x311F JUMPI PUSH2 0x311E PUSH2 0x2E68 JUMP JUMPDEST JUMPDEST DUP2 CALLDATALOAD PUSH2 0x312F DUP5 DUP3 PUSH1 0x20 DUP7 ADD PUSH2 0x30CA JUMP JUMPDEST SWAP2 POP POP SWAP3 SWAP2 POP POP JUMP JUMPDEST PUSH0 PUSH0 PUSH0 PUSH0 PUSH1 0x80 DUP6 DUP8 SUB SLT ISZERO PUSH2 0x3150 JUMPI PUSH2 0x314F PUSH2 0x2AAE JUMP JUMPDEST JUMPDEST PUSH0 PUSH2 0x315D DUP8 DUP3 DUP9 ADD PUSH2 0x2CC5 JUMP JUMPDEST SWAP5 POP POP PUSH1 0x20 PUSH2 0x316E DUP8 DUP3 DUP9 ADD PUSH2 0x2CC5 JUMP JUMPDEST SWAP4 POP POP PUSH1 0x40 PUSH2 0x317F DUP8 DUP3 DUP9 ADD PUSH2 0x2C18 JUMP JUMPDEST SWAP3 POP POP PUSH1 0x60 DUP6 ADD CALLDATALOAD PUSH8 0xFFFFFFFFFFFFFFFF DUP2 GT ISZERO PUSH2 0x31A0 JUMPI PUSH2 0x319F PUSH2 0x2AB2 JUMP JUMPDEST JUMPDEST PUSH2 0x31AC DUP8 DUP3 DUP9 ADD PUSH2 0x310B JUMP JUMPDEST SWAP2 POP POP SWAP3 SWAP6 SWAP2 SWAP5 POP SWAP3 POP JUMP JUMPDEST PUSH0 DUP2 MLOAD SWAP1 POP SWAP2 SWAP1 POP JUMP JUMPDEST PUSH0 DUP3 DUP3 MSTORE PUSH1 0x20 DUP3 ADD SWAP1 POP SWAP3 SWAP2 POP POP JUMP JUMPDEST PUSH0 DUP2 SWAP1 POP PUSH1 0x20 DUP3 ADD SWAP1 POP SWAP2 SWAP1 POP JUMP JUMPDEST PUSH2 0x31EA DUP2 PUSH2 0x2BF9 JUMP JUMPDEST DUP3 MSTORE POP POP JUMP JUMPDEST PUSH0 PUSH2 0x31FB DUP4 DUP4 PUSH2 0x31E1 JUMP JUMPDEST PUSH1 0x20 DUP4 ADD SWAP1 POP SWAP3 SWAP2 POP POP JUMP JUMPDEST PUSH0 PUSH1 0x20 DUP3 ADD SWAP1 POP SWAP2 SWAP1 POP JUMP JUMPDEST PUSH0 PUSH2 0x321D DUP3 PUSH2 0x31B8 JUMP JUMPDEST PUSH2 0x3227 DUP2 DUP6 PUSH2 0x31C2 JUMP JUMPDEST SWAP4 POP PUSH2 0x3232 DUP4 PUSH2 0x31D2 JUMP JUMPDEST DUP1 PUSH0 JUMPDEST DUP4 DUP2 LT ISZERO PUSH2 0x3262 JUMPI DUP2 MLOAD PUSH2 0x3249 DUP9 DUP3 PUSH2 0x31F0 JUMP JUMPDEST SWAP8 POP PUSH2 0x3254 DUP4 PUSH2 0x3207 JUMP JUMPDEST SWAP3 POP POP PUSH1 0x1 DUP2 ADD SWAP1 POP PUSH2 0x3235 JUMP JUMPDEST POP DUP6 SWAP4 POP POP POP POP SWAP3 SWAP2 POP POP JUMP JUMPDEST PUSH0 PUSH1 0x20 DUP3 ADD SWAP1 POP DUP2 DUP2 SUB PUSH0 DUP4 ADD MSTORE PUSH2 0x3287 DUP2 DUP5 PUSH2 0x3213 JUMP JUMPDEST SWAP1 POP SWAP3 SWAP2 POP POP JUMP JUMPDEST PUSH0 PUSH0 PUSH1 0x40 DUP4 DUP6 SUB SLT ISZERO PUSH2 0x32A5 JUMPI PUSH2 0x32A4 PUSH2 0x2AAE JUMP JUMPDEST JUMPDEST PUSH0 PUSH2 0x32B2 DUP6 DUP3 DUP7 ADD PUSH2 0x2CC5 JUMP JUMPDEST SWAP3 POP POP PUSH1 0x20 PUSH2 0x32C3 DUP6 DUP3 DUP7 ADD PUSH2 0x2CC5 JUMP JUMPDEST SWAP2 POP POP SWAP3 POP SWAP3 SWAP1 POP JUMP JUMPDEST PUSH0 DUP3 DUP3 MSTORE PUSH1 0x20 DUP3 ADD SWAP1 POP SWAP3 SWAP2 POP POP JUMP JUMPDEST PUSH0 PUSH2 0x32E7 DUP3 PUSH2 0x2B69 JUMP JUMPDEST PUSH2 0x32F1 DUP2 DUP6 PUSH2 0x32CD JUMP JUMPDEST SWAP4 POP PUSH2 0x3301 DUP2 DUP6 PUSH1 0x20 DUP7 ADD PUSH2 0x2B83 JUMP JUMPDEST PUSH2 0x330A DUP2 PUSH2 0x2B91 JUMP JUMPDEST DUP5 ADD SWAP2 POP POP SWAP3 SWAP2 POP POP JUMP JUMPDEST PUSH2 0x331E DUP2 PUSH2 0x2B36 JUMP JUMPDEST DUP3 MSTORE POP POP JUMP JUMPDEST PUSH0 PUSH1 0x80 DUP4 ADD PUSH0 DUP4 ADD MLOAD DUP5 DUP3 SUB PUSH0 DUP7 ADD MSTORE PUSH2 0x333E DUP3 DUP3 PUSH2 0x32DD JUMP JUMPDEST SWAP2 POP POP PUSH1 0x20 DUP4 ADD MLOAD PUSH2 0x3353 PUSH1 0x20 DUP7 ADD DUP3 PUSH2 0x31E1 JUMP JUMPDEST POP PUSH1 0x40 DUP4 ADD MLOAD PUSH2 0x3366 PUSH1 0x40 DUP7 ADD DUP3 PUSH2 0x31E1 JUMP JUMPDEST POP PUSH1 0x60 DUP4 ADD MLOAD PUSH2 0x3379 PUSH1 0x60 DUP7 ADD DUP3 PUSH2 0x3315 JUMP JUMPDEST POP DUP1 SWAP2 POP POP SWAP3 SWAP2 POP POP JUMP JUMPDEST PUSH0 PUSH1 0x20 DUP3 ADD SWAP1 POP DUP2 DUP2 SUB PUSH0 DUP4 ADD MSTORE PUSH2 0x339C DUP2 DUP5 PUSH2 0x3324 JUMP JUMPDEST SWAP1 POP SWAP3 SWAP2 POP POP JUMP JUMPDEST PUSH32 0x4E487B7100000000000000000000000000000000000000000000000000000000 PUSH0 MSTORE PUSH1 0x22 PUSH1 0x4 MSTORE PUSH1 0x24 PUSH0 REVERT JUMPDEST PUSH0 PUSH1 0x2 DUP3 DIV SWAP1 POP PUSH1 0x1 DUP3 AND DUP1 PUSH2 0x33E8 JUMPI PUSH1 0x7F DUP3 AND SWAP2 POP JUMPDEST PUSH1 0x20 DUP3 LT DUP2 SUB PUSH2 0x33FB JUMPI PUSH2 0x33FA PUSH2 0x33A4 JUMP JUMPDEST JUMPDEST POP SWAP2 SWAP1 POP JUMP JUMPDEST PUSH0 PUSH1 0x60 DUP3 ADD SWAP1 POP PUSH2 0x3414 PUSH0 DUP4 ADD DUP7 PUSH2 0x2D17 JUMP JUMPDEST PUSH2 0x3421 PUSH1 0x20 DUP4 ADD DUP6 PUSH2 0x2D17 JUMP JUMPDEST PUSH2 0x342E PUSH1 0x40 DUP4 ADD DUP5 PUSH2 0x2D17 JUMP JUMPDEST SWAP5 SWAP4 POP POP POP POP JUMP JUMPDEST PUSH0 PUSH1 0x40 DUP3 ADD SWAP1 POP PUSH2 0x3449 PUSH0 DUP4 ADD DUP6 PUSH2 0x2D17 JUMP JUMPDEST PUSH2 0x3456 PUSH1 0x20 DUP4 ADD DUP5 PUSH2 0x2C87 JUMP JUMPDEST SWAP4 SWAP3 POP POP POP JUMP JUMPDEST PUSH0 PUSH1 0x60 DUP3 ADD SWAP1 POP PUSH2 0x3470 PUSH0 DUP4 ADD DUP7 PUSH2 0x2C87 JUMP JUMPDEST PUSH2 0x347D PUSH1 0x20 DUP4 ADD DUP6 PUSH2 0x2D17 JUMP JUMPDEST PUSH2 0x348A PUSH1 0x40 DUP4 ADD DUP5 PUSH2 0x2C87 JUMP JUMPDEST SWAP5 SWAP4 POP POP POP POP JUMP JUMPDEST PUSH0 DUP2 SWAP1 POP SWAP2 SWAP1 POP JUMP JUMPDEST PUSH2 0x34AC PUSH2 0x34A7 DUP3 PUSH2 0x2BF9 JUMP JUMPDEST PUSH2 0x3492 JUMP JUMPDEST DUP3 MSTORE POP POP JUMP JUMPDEST PUSH0 DUP2 PUSH1 0x60 SHL SWAP1 POP SWAP2 SWAP1 POP JUMP JUMPDEST PUSH0 PUSH2 0x34C8 DUP3 PUSH2 0x34B2 JUMP JUMPDEST SWAP1 POP SWAP2 SWAP1 POP JUMP JUMPDEST PUSH0 PUSH2 0x34D9 DUP3 PUSH2 0x34BE JUMP JUMPDEST SWAP1 POP SWAP2 SWAP1 POP JUMP JUMPDEST PUSH2 0x34F1 PUSH2 0x34EC DUP3 PUSH2 0x2C76 JUMP JUMPDEST PUSH2 0x34CF JUMP JUMPDEST DUP3 MSTORE POP POP JUMP JUMPDEST PUSH0 DUP2 SWAP1 POP SWAP3 SWAP2 POP POP JUMP JUMPDEST PUSH0 PUSH2 0x350C DUP4 DUP6 PUSH2 0x34F7 JUMP JUMPDEST SWAP4 POP PUSH2 0x3519 DUP4 DUP6 DUP5 PUSH2 0x30BC JUMP JUMPDEST DUP3 DUP5 ADD SWAP1 POP SWAP4 SWAP3 POP POP POP JUMP JUMPDEST PUSH0 PUSH2 0x3530 DUP3 DUP11 PUSH2 0x349B JUMP JUMPDEST PUSH1 0x20 DUP3 ADD SWAP2 POP PUSH2 0x3540 DUP3 DUP10 PUSH2 0x349B JUMP JUMPDEST PUSH1 0x20 DUP3 ADD SWAP2 POP PUSH2 0x3550 DUP3 DUP9 PUSH2 0x34E0 JUMP JUMPDEST PUSH1 0x14 DUP3 ADD SWAP2 POP PUSH2 0x3561 DUP3 DUP7 DUP9 PUSH2 0x3501 JUMP JUMPDEST SWAP2 POP PUSH2 0x356D DUP3 DUP6 PUSH2 0x349B JUMP JUMPDEST PUSH1 0x20 DUP3 ADD SWAP2 POP PUSH2 0x357D DUP3 DUP5 PUSH2 0x349B JUMP JUMPDEST PUSH1 0x20 DUP3 ADD SWAP2 POP DUP2 SWAP1 POP SWAP9 SWAP8 POP POP POP POP POP POP POP POP JUMP JUMPDEST PUSH0 DUP2 SWAP1 POP DUP2 PUSH0 MSTORE PUSH1 0x20 PUSH0 KECCAK256 SWAP1 POP SWAP2 SWAP1 POP JUMP JUMPDEST PUSH0 PUSH1 0x20 PUSH1 0x1F DUP4 ADD DIV SWAP1 POP SWAP2 SWAP1 POP JUMP JUMPDEST PUSH0 DUP3 DUP3 SHL SWAP1 POP SWAP3 SWAP2 POP POP JUMP JUMPDEST PUSH0 PUSH1 0x8 DUP4 MUL PUSH2 0x35EE PUSH32 0xFFFFFFFFFFFFFFFFFFFFFFFFFFFFFFFFFFFFFFFFFFFFFFFFFFFFFFFFFFFFFFFF DUP3 PUSH2 0x35B3 JUMP JUMPDEST PUSH2 0x35F8 DUP7 DUP4 PUSH2 0x35B3 JUMP JUMPDEST SWAP6 POP DUP1 NOT DUP5 AND SWAP4 POP DUP1 DUP7 AND DUP5 OR SWAP3 POP POP POP SWAP4 SWAP3 POP POP POP JUMP JUMPDEST PUSH0 DUP2 SWAP1 POP SWAP2 SWAP1 POP JUMP JUMPDEST PUSH0 PUSH2 0x3633 PUSH2 0x362E PUSH2 0x3629 DUP5 PUSH2 0x2BF9 JUMP JUMPDEST PUSH2 0x3610 JUMP JUMPDEST PUSH2 0x2BF9 JUMP JUMPDEST SWAP1 POP SWAP2 SWAP1 POP JUMP JUMPDEST PUSH0 DUP2 SWAP1 POP SWAP2 SWAP1 POP JUMP JUMPDEST PUSH2 0x364C DUP4 PUSH2 0x3619 JUMP JUMPDEST PUSH2 0x3660 PUSH2 0x3658 DUP3 PUSH2 0x363A JUMP JUMPDEST DUP5 DUP5 SLOAD PUSH2 0x35BF JUMP JUMPDEST DUP3 SSTORE POP POP POP POP JUMP JUMPDEST PUSH0 PUSH0 SWAP1 POP SWAP1 JUMP JUMPDEST PUSH2 0x3677 PUSH2 0x3668 JUMP JUMPDEST PUSH2 0x3682 DUP2 DUP5 DUP5 PUSH2 0x3643 JUMP JUMPDEST POP POP POP JUMP JUMPDEST JUMPDEST DUP2 DUP2 LT ISZERO PUSH2 0x36A5 JUMPI PUSH2 0x369A PUSH0 DUP3 PUSH2 0x366F JUMP JUMPDEST PUSH1 0x1 DUP2 ADD SWAP1 POP PUSH2 0x3688 JUMP JUMPDEST POP POP JUMP JUMPDEST PUSH1 0x1F DUP3 GT ISZERO PUSH2 0x36EA JUMPI PUSH2 0x36BB DUP2 PUSH2 0x3592 JUMP JUMPDEST PUSH2 0x36C4 DUP5 PUSH2 0x35A4 JUMP JUMPDEST DUP2 ADD PUSH1 0x20 DUP6 LT ISZERO PUSH2 0x36D3 JUMPI DUP2 SWAP1 POP JUMPDEST PUSH2 0x36E7 PUSH2 0x36DF DUP6 PUSH2 0x35A4 JUMP JUMPDEST DUP4 ADD DUP3 PUSH2 0x3687 JUMP JUMPDEST POP POP JUMPDEST POP POP POP JUMP JUMPDEST PUSH0 DUP3 DUP3 SHR SWAP1 POP SWAP3 SWAP2 POP POP JUMP JUMPDEST PUSH0 PUSH2 0x370A PUSH0 NOT DUP5 PUSH1 0x8 MUL PUSH2 0x36EF JUMP JUMPDEST NOT DUP1 DUP4 AND SWAP2 POP POP SWAP3 SWAP2 POP POP JUMP JUMPDEST PUSH0 PUSH2 0x3722 DUP4 DUP4 PUSH2 0x36FB JUMP JUMPDEST SWAP2 POP DUP3 PUSH1 0x2 MUL DUP3 OR SWAP1 POP SWAP3 SWAP2 POP POP JUMP JUMPDEST PUSH2 0x373B DUP3 PUSH2 0x2B69 JUMP JUMPDEST PUSH8 0xFFFFFFFFFFFFFFFF DUP2 GT ISZERO PUSH2 0x3754 JUMPI PUSH2 0x3753 PUSH2 0x3014 JUMP JUMPDEST JUMPDEST PUSH2 0x375E DUP3 SLOAD PUSH2 0x33D1 JUMP JUMPDEST PUSH2 0x3769 DUP3 DUP3 DUP6 PUSH2 0x36A9 JUMP JUMPDEST PUSH0 PUSH1 0x20 SWAP1 POP PUSH1 0x1F DUP4 GT PUSH1 0x1 DUP2 EQ PUSH2 0x379A JUMPI PUSH0 DUP5 ISZERO PUSH2 0x3788 JUMPI DUP3 DUP8 ADD MLOAD SWAP1 POP JUMPDEST PUSH2 0x3792 DUP6 DUP3 PUSH2 0x3717 JUMP JUMPDEST DUP7 SSTORE POP PUSH2 0x37F9 JUMP JUMPDEST PUSH1 0x1F NOT DUP5 AND PUSH2 0x37A8 DUP7 PUSH2 0x3592 JUMP JUMPDEST PUSH0 JUMPDEST DUP3 DUP2 LT ISZERO PUSH2 0x37CF JUMPI DUP5 DUP10 ADD MLOAD DUP3 SSTORE PUSH1 0x1 DUP3 ADD SWAP2 POP PUSH1 0x20 DUP6 ADD SWAP5 POP PUSH1 0x20 DUP2 ADD SWAP1 POP PUSH2 0x37AA JUMP JUMPDEST DUP7 DUP4 LT ISZERO PUSH2 0x37EC JUMPI DUP5 DUP10 ADD MLOAD PUSH2 0x37E8 PUSH1 0x1F DUP10 AND DUP3 PUSH2 0x36FB JUMP JUMPDEST DUP4 SSTORE POP JUMPDEST PUSH1 0x1 PUSH1 0x2 DUP9 MUL ADD DUP9 SSTORE POP POP POP JUMPDEST POP POP POP POP POP POP JUMP JUMPDEST PUSH0 PUSH2 0x380C DUP4 DUP6 PUSH2 0x2B73 JUMP JUMPDEST SWAP4 POP PUSH2 0x3819 DUP4 DUP6 DUP5 PUSH2 0x30BC JUMP JUMPDEST PUSH2 0x3822 DUP4 PUSH2 0x2B91 JUMP JUMPDEST DUP5 ADD SWAP1 POP SWAP4 SWAP3 POP POP POP JUMP JUMPDEST PUSH0 PUSH1 0x40 DUP3 ADD SWAP1 POP DUP2 DUP2 SUB PUSH0 DUP4 ADD MSTORE PUSH2 0x3846 DUP2 DUP6 DUP8 PUSH2 0x3801 JUMP JUMPDEST SWAP1 POP PUSH2 0x3855 PUSH1 0x20 DUP4 ADD DUP5 PUSH2 0x2D17 JUMP JUMPDEST SWAP5 SWAP4 POP POP POP POP JUMP JUMPDEST PUSH0 PUSH2 0x3867 DUP3 PUSH2 0x2B69 JUMP JUMPDEST PUSH2 0x3871 DUP2 DUP6 PUSH2 0x34F7 JUMP JUMPDEST SWAP4 POP PUSH2 0x3881 DUP2 DUP6 PUSH1 0x20 DUP7 ADD PUSH2 0x2B83 JUMP JUMPDEST DUP1 DUP5 ADD SWAP2 POP POP SWAP3 SWAP2 POP POP JUMP JUMPDEST PUSH0 PUSH2 0x3898 DUP3 DUP6 PUSH2 0x385D JUMP JUMPDEST SWAP2 POP PUSH2 0x38A4 DUP3 DUP5 PUSH2 0x385D JUMP JUMPDEST SWAP2 POP DUP2 SWAP1 POP SWAP4 SWAP3 POP POP POP JUMP JUMPDEST PUSH0 DUP2 MLOAD SWAP1 POP SWAP2 SWAP1 POP JUMP JUMPDEST PUSH0 DUP3 DUP3 MSTORE PUSH1 0x20 DUP3 ADD SWAP1 POP SWAP3 SWAP2 POP POP JUMP JUMPDEST PUSH0 PUSH2 0x38D4 DUP3 PUSH2 0x38B0 JUMP JUMPDEST PUSH2 0x38DE DUP2 DUP6 PUSH2 0x38BA JUMP JUMPDEST SWAP4 POP PUSH2 0x38EE DUP2 DUP6 PUSH1 0x20 DUP7 ADD PUSH2 0x2B83 JUMP JUMPDEST PUSH2 0x38F7 DUP2 PUSH2 0x2B91 JUMP JUMPDEST DUP5 ADD SWAP2 POP POP SWAP3 SWAP2 POP POP JUMP JUMPDEST PUSH0 PUSH1 0x80 DUP3 ADD SWAP1 POP PUSH2 0x3915 PUSH0 DUP4 ADD DUP8 PUSH2 0x2C87 JUMP JUMPDEST PUSH2 0x3922 PUSH1 0x20 DUP4 ADD DUP7 PUSH2 0x2C87 JUMP JUMPDEST PUSH2 0x392F PUSH1 0x40 DUP4 ADD DUP6 PUSH2 0x2D17 JUMP JUMPDEST DUP2 DUP2 SUB PUSH1 0x60 DUP4 ADD MSTORE PUSH2 0x3941 DUP2 DUP5 PUSH2 0x38CA JUMP JUMPDEST SWAP1 POP SWAP6 SWAP5 POP POP POP POP POP JUMP JUMPDEST PUSH0 DUP2 MLOAD SWAP1 POP PUSH2 0x395A DUP2 PUSH2 0x2AE1 JUMP JUMPDEST SWAP3 SWAP2 POP POP JUMP JUMPDEST PUSH0 PUSH1 0x20 DUP3 DUP5 SUB SLT ISZERO PUSH2 0x3975 JUMPI PUSH2 0x3974 PUSH2 0x2AAE JUMP JUMPDEST JUMPDEST PUSH0 PUSH2 0x3982 DUP5 DUP3 DUP6 ADD PUSH2 0x394C JUMP JUMPDEST SWAP2 POP POP SWAP3 SWAP2 POP POP JUMP JUMPDEST PUSH32 0x4E487B7100000000000000000000000000000000000000000000000000000000 PUSH0 MSTORE PUSH1 0x12 PUSH1 0x4 MSTORE PUSH1 0x24 PUSH0 REVERT JUMPDEST PUSH0 PUSH1 0x40 DUP3 ADD SWAP1 POP PUSH2 0x39CB PUSH0 DUP4 ADD DUP6 PUSH2 0x2C87 JUMP JUMPDEST PUSH2 0x39D8 PUSH1 0x20 DUP4 ADD DUP5 PUSH2 0x2E02 JUMP JUMPDEST SWAP4 SWAP3 POP POP POP JUMP JUMPDEST PUSH0 PUSH1 0x40 DUP3 ADD SWAP1 POP PUSH2 0x39F2 PUSH0 DUP4 ADD DUP6 PUSH2 0x2C87 JUMP JUMPDEST PUSH2 0x39FF PUSH1 0x20 DUP4 ADD DUP5 PUSH2 0x2D17 JUMP JUMPDEST SWAP4 SWAP3 POP POP POP JUMP INVALID LOG2 PUSH5 0x6970667358 0x22 SLT KECCAK256 SWAP8 0xA9 SSTORE 0x4C MCOPY SELFDESTRUCT 0xEF 0xC 0xAD PUSH31 0x7DB51BF250579DA2E99DB3E7978B06D6BA4859898ECD64736F6C634300081C STOP CALLER "},"methodIdentifiers":{"ADMIN_ROLE()":"75b238fc","DEFAULT_ADMIN_ROLE()":"a217fddf","EXAM_CENTER_ROLE()":"44fcce23","STUDENT_ROLE()":"f7be43fb","TEACHER_ROLE()":"86e5c15a","approve(address,uint256)":"095ea7b3","approveContent(uint256)":"589c9648","balanceOf(address)":"70a08231","contentExists(uint256)":"724121ae","finalizeContent(uint256)":"878b9b44","getAllContentIds()":"c130efd0","getApproved(uint256)":"081812fc","getContent(uint256)":"0b7ad54c","getPendingContent(uint256)":"ecdc68fb","getRoleAdmin(bytes32)":"248a9ca3","grantRole(bytes32,address)":"2f2ff15d","hasContentAccess(uint256,address)":"b3402c1a","hasRole(bytes32,address)":"91d14854","isApprovedForAll(address,address)":"e985e9c5","mintAccessNFT(address,uint256)":"35a5a37f","name()":"06fdde03","nextTokenId()":"75794a3c","ownerOf(uint256)":"6352211e","renounceRole(bytes32,address)":"36568abe","revokeRole(bytes32,address)":"d547741f","safeTransferFrom(address,address,uint256)":"42842e0e","safeTransferFrom(address,address,uint256,bytes)":"b88d4fde","setApprovalForAll(address,bool)":"a22cb465","supportsInterface(bytes4)":"01ffc9a7","symbol()":"95d89b41","tokenToContentId(uint256)":"dde288e5","tokenURI(uint256)":"c87b56dd","transferFrom(address,address,uint256)":"23b872dd","uploadContent(string,uint256)":"65e404ed"}}}}}